:1000000086C00000A2C00000A0C000009EC000008A
:100010009CC000009AC0000098C0000096C000007C
:1000200094C0000092C0000090C000008EC000008C
:100030008CC000008AC0000088C0000086C000009C
:1000400084C0000082C0000080C000007EC00000AC
:100050007CC000007AC0000078C0000076C00000BC
:1000600074C0000072C0000070C000006EC00000CC
:100070006CC000006AC0000068C0000066C00000DC
:1000800064C0000062C0000060C000000763423628
:10009000B79BD8A71A39685618AEBAAB558C1D3C19
:1000A000B7CC5763BD6DEDFD753EF6177231BF00DD
:1000B0000000803F08000000BE922449123EABAA17
:1000C000AA2ABECDCCCC4C3E00000080BEABAAAA72
:1000D000AA3E00000000BF000000803F00000000BA
:1000E00000084178D3BB4387D1133D190E3CC3BDF3
:1000F0004282AD2B3E68EC8276BED98FE1A93E4CA0
:1001000080EFFFBE01C4FF7F3F000000000011240C
:100110001FBECFEFD0E1DEBFCDBF12E0A0E0B1E067
:10012000EEEEFAE100E00BBF02C007900D92AA3894
:10013000B107D9F722E0AAE8B2E001C01D92AE3AB9
:10014000B207E1F751D50C94750D5ACFCF93DF93D9
:100150001F92CDB7DEB719829E012F5F3F4F41E05E
:1001600060E080918A02BDD48981853E11F481E0EE
:1001700001C080E00F90DF91CF9108954BE061E3E3
:1001800080918A028FC4089548E06DE280918A02CE
:1001900089C4089580938A02D9DF882341F048E01A
:1001A0006CE280918A027ED4E9DFEEDF81E008957F
:1001B000CF92DF92EF92FF920F931F93CF93DF9333
:1001C00000D000D000D0CDB7DEB76C017B018A0132
:1001D0009E012F5F3F4F46E062E380918A0281D407
:1001E0008A8190E0982F88272981822BF6019183BC
:1001F00080838C8190E0982F88272B81822BF701B8
:10020000918380838E8190E0982F88272D81822B87
:10021000F8019183808326960FB6F894DEBF0FBE57
:10022000CDBFDF91CF911F910F91FF90EF90DF90A5
:10023000CF900895462F682F8091950233C408957A
:10024000CF93DF931F92CDB7DEB79E012F5F3F4F55
:1002500041E0682F8091950244D489810F90DF910D
:10026000CF910895CF93DF9300D0CDB7DEB79E0135
:100270002F5F3F4F42E0682F8091950232D48981F1
:1002800090E0982F88272A81822B0F900F90DF9182
:10029000CF910895E7DF9827892798270895FACF07
:1002A0000895CF93DF9300D01F92CDB7DEB79E01A4
:1002B0002F5F3F4F43E0682F8091950212D46981F0
:1002C000862F90E0A0E0B0E0BA2FA92F982F8827C2
:1002D0002A81822BBA2FA92F982F88272B81BC0126
:1002E000CD01622B0F900F900F90DF91CF91089569
:1002F00088E8D0DF90938E0280938D028AE8CFDF6A
:100300009093900280938F028CE8C9DF9093A102B2
:100310008093A0028EE8BEDF9093990280939802AA
:1003200080E9BDDF909392028093910282E9B7DF6A
:1003300090939B0280939A0284E9B1DF9093940298
:100340008093930286E9ABDF9093970280939602A5
:1003500088E9A5DF9093A3028093A2028AE99FDF38
:1003600090938C0280938B028CE999DF90939D028D
:1003700080939C028EE993DF90939F0280939E026C
:1003800080918E028F9380918D028F938EE091E009
:100390009F938F930E94850A809190028F93809102
:1003A0008F028F938CE191E09F938F930E94850A37
:1003B0008091A1028F938091A0028F9389E291E0B6
:1003C0009F938F930E94850A809199028F938091C9
:1003D00098028F9386E391E09F938F930E94850A02
:1003E000809192028F93809191028F9383E491E0A8
:1003F0009F938F930E94850A80919B028F93809197
:100400009A028F9380E591E09F938F930E94850AD3
:10041000809194028F93809193028F938DE591E068
:100420009F938F930E94850A809197028F9380916A
:1004300096028F938AE691E09F938F930E94850A9C
:100440008DB79EB780960FB6F8949EBF0FBE8DBF36
:100450008091A3028F938091A2028F9387E791E00E
:100460009F938F930E94850A80918C028F93809135
:100470008B028F9384E891E09F938F930E94850A6B
:1004800080919D028F9380919C028F9381E991E0EE
:100490009F938F930E94850A80919F028F938091F2
:1004A0009E028F938EE991E09F938F930E94850A1D
:1004B0008DB79EB740960FB6F8949EBF0FBE8DBF06
:1004C0000895CF93C82F8BEA91E00E94980AC093B9
:1004D000950280EB91E00E94980A80EDB1DE8835AC
:1004E00081F483ED91E00E94980A02DF81EE91E0B1
:1004F0000E94980A68E685EF9DDE85EFA1DE81E027
:1005000001C080E0CF9108954F925F926F927F92E9
:100510008F929F92AF92BF92CF92DF92EF92FF9213
:100520008AEFBFDE6B017C01AB01BC01689416F859
:1005300075956795579547951694D1F740908D021C
:1005400050908E02612C712CD301C201880F991F2B
:10055000AA1FBB1F9A01AB01281B390B4A0B5B0B6F
:10056000A0918F02B0919002BBD74B015C01072E86
:100570007BE0B594A794979487947A95D1F7702DE2
:10058000BB27F7FCBA95AF2D9E2D8D2DBC01CD015B
:1005900064197509860997099B01AC014AD79B012B
:1005A000AC01012E1CE055954795379527951A9576
:1005B000D1F7102DA091A002B091A10291D7DC013A
:1005C000CB01072E7EE0B595A795979587957A95EF
:1005D000D1F7702D880D991DAA1DBB1D8093A40213
:1005E0009093A502A093A602B093A7026C017D018F
:1005F000CC0CDD1CEE1CFF1CCC0CDD1CEE1CFF1C0F
:100600008C0D9D1DAE1DBF1D80589F4FAF4FBF4F1E
:10061000692F7A2F8B2F992787FD9A95FF90EF905E
:10062000DF90CF90BF90AF909F908F907F906F9012
:100630005F904F9008954F925F926F927F928F924A
:100640009F92AF92BF92CF92DF92EF92FF92CF93A1
:10065000DF9300D000D000D0CDB7DEB77C017E8321
:100660006D8352DFF701608371838283938387EF09
:1006700018DE2B013C01689413F875946794579425
:1006800047941694D1F76091A4027091A5028091CD
:10069000A6029091A70255D420E030E040E05FE34D
:1006A00000D520E030E04AE757E478D36B017C01C5
:1006B0009B01AC01F6D44B015C016091A2027091E8
:1006C000A302072E000C880B990B3BD49B01AC01B5
:1006D000C501B401E6D420E030E040E058E3E1D4C5
:1006E0004B015C016091960270919702072E000CFD
:1006F000880B990B26D49B01AC01C701B601D1D45C
:100700009B01AC014CD39B01AC01C501B40147D3A3
:1007100020E030E040E85EE3C4D44B015C0160912E
:10072000930270919402072E000C880B990B09D448
:1007300020E030E040E857E4B4D49B01AC01C501AF
:10074000B4012DD369837A838B839C8360919A0251
:1007500070919B02072E000C880B990BF2D39B0122
:10076000AC01C701B6019DD49B01AC01C701B60124
:1007700098D420E030E040E056E393D44B015C0194
:100780006091910270919202072E000C880B990BD8
:10079000D8D39B01AC01C701B60183D49B01AC0146
:1007A000C501B401FCD220E030E040E056E379D44A
:1007B00020E030E040E058E374D420E030E040E84E
:1007C0005FE3EDD26B017C01609198027091990218
:1007D00080E090E0B4D39B01AC01C701B60161D4C5
:1007E0006B017C0120E030E0A9013DD3811107C0FD
:1007F000ED81FE81108211821282138282C0C301B8
:10080000B2019FD39B01AC0160E070E080E899E405
:10081000C5D24B015C01ED81FE81608371838283CF
:10082000938320E030E040E859E369817A818B814D
:100830009C8137D49B01AC01C501B401AFD220E04B
:1008400030E543EC55E42DD4A701960110D36B019C
:100850007C01ED81FE81608371838283938360914B
:100860009E0270919F02072E000C880B990B69D392
:100870009B01AC01C701B60114D49B01AC01C701B7
:10088000B6010FD420E030E040E050E30AD44B0141
:100890005C0160919C0270919D02072E000C880BF8
:1008A000990B4FD39B01AC01C701B601FAD320E0ED
:1008B00030E040E058E3F5D39B01AC01C501B40141
:1008C0006ED24B015C0160918B0270918C02072EFD
:1008D000000C880B990B35D39B01AC01C501B40109
:1008E0005ED220E030E040E85DE3DBD39B01AC0169
:1008F000C701B60154D2ED81FE816083718382838A
:10090000938326960FB6F894DEBF0FBECDBFDF915E
:10091000CF91FF90EF90DF90CF90BF90AF909F90DE
:100920008F907F906F905F904F900895FC01608151
:1009300071818281938120E836EE45EC57E497D2AD
:1009400022E63BED42E45EE30FD49B01AC0160E0A4
:1009500070E080E89FE322D220E03AE24DE257E4E3
:10096000A0C3EF92FF920F931F93CF93DF937C016D
:10097000EB018A0165E584EF5DDC2FEF82E191E018
:10098000215080409040E1F700C00000BE01C70147
:1009900052DECE01CBDFF8016083718382839383C3
:1009A00081E0DF91CF911F910F91FF90EF9008951B
:1009B0009C0140E050E060E072E18AE790E06AD597
:1009C000BA01A9014051510961097109DB01CA014C
:1009D0001AF40196A11DB11DB595A7959795879518
:1009E0008093700010927100E4E7F0E080818460F1
:1009F0008083089584EA8093740080917400882332
:100A0000E4F7089584E9809374008091740084FD74
:100A1000FCCF08958093730084E8809374008091E4
:100A200074008823E4F780917100887F883161F039
:100A300080917100887F883249F080917100887FB1
:100A4000803431F481E0089581E0089581E00895D3
:100A500080E00895DC01662331F0E4E7F0E0908166
:100A60009064908305C0E4E7F0E090819F7B9083E1
:100A7000E4E7F0E09081906890839091740099236E
:100A8000E4F790917100987F983529F0909171006A
:100A9000987F903529F4809173008C9381E00895BC
:100AA00080E008951F93CF93DF93182FD62FC42F84
:100AB000A1DF812F880FAEDF8D2FACDF8C2FAADF57
:100AC0008FE19EE40197F1F700C000009BDF8FEDFE
:100AD0009EE20197F1F700C00000DF91CF911F91D6
:100AE0000895FF920F931F93CF93DF93C82FF62E95
:100AF000D42F89017FDFCC0F8C2F8CDF8F2D8ADFE5
:100B000079DF81E08C0F86DFC0E006C061E0C801BC
:100B1000A1DF0F5F1F4FCF5FCD17C0F3DF91CF91E4
:100B20001F910F91FF900895CF93C82F8A3011F431
:100B30008DE0FADF8C2F2ED180E090E0CF910895E8
:100B400080EA96E835DF83E525DB2FEF39E698E18B
:100B5000215030409040E1F700C00000813041F466
:100B60008DEF91E09F938F93D0D40F900F900895C5
:100B70008AE092E09F938F93C8D40F900F900895CE
:100B800080E881BB1092900093E399B998E19AB9FB
:100B900096E09093950082BB2FEF89E698E1215073
:100BA00080409040E1F700C0000008955F9BFECFB9
:100BB0008CB190E008955D9BFECF8CB908950F93A2
:100BC0001F93CF93DF938C01C0E0D0E002C0F3DF2E
:100BD0002196F801EC0FFD1F80818111F8CFDF9184
:100BE000CF911F910F910895CF93DF93CDB7DEB7CB
:100BF0006B970FB6F894DEBF0FBECDBF1E861D8665
:100C0000188A1F861A8A198A80EA96E8D1DE98DF48
:100C100080E895E2B5DF86E754DC12BA89E0E0E8C7
:100C2000F2E0DE01539601900D928A95E1F780E0A3
:100C300091E09093AB028093AA028BE192E09F93A4
:100C40008F9363D40F900F90AE014F5E5F4FBE0144
:100C5000615F7F4FCE010D96ABDA6D857E85072EE5
:100C6000000C880B990B6DD122EC3BEF4AE25DE35F
:100C700018D2F62EE72ED82EC92E6F857889072E2A
:100C8000000C880B990B5DD122EC3BEF4AE25DE34F
:100C900008D2B62EA72E982E892E69897A89072E1A
:100CA000000C880B990B4DD122EC3BEF4AE25DE33F
:100CB000F8D1662E572E482E392EAE01475F5F4F72
:100CC000BE016B5F7F4FCE0101964BDE782E6EDF4B
:100CD0008C01C19719F480E882BB01C012BA21E0EF
:100CE00072121EC08C858F938B858F938A858F930C
:100CF00089858F9388858F938F818F938E818F9332
:100D00008D818F938A818F9389818F9381E292E085
:100D10009F938F93FAD30FB6F894DEBF0FBECDBF6B
:100D200080ED8EDA782E3F924F925F926F928F9283
:100D30009F92AF92BF92CF92DF92EF92FF9282E4A6
:100D400092E09F938F93E1D31F927F9289E592E087
:100D50009F938F93DAD31F930F9386E692E09F932E
:100D60008F93D3D38DE027DF8AE025DFCE01439632
:100D700026DF802F20DF9FEF20E782E09150204088
:100D80008040E1F700C000000FB6F894DEBF0FBE50
:100D9000CDBF5ACF5D9BFECF8CB908955058BB276D
:100DA000AA270ED044C135D130F03AD120F031F429
:100DB0009F3F11F41EF42AC10EF4E095E7FB20C119
:100DC000E92F46D180F3BA176207730784079507A6
:100DD00018F071F49EF55EC10EF4E0950B2EBA2F5B
:100DE000A02D0B01B90190010C01CA01A001112431
:100DF000FF27591B99F0593F50F4503E68F11A16DD
:100E0000F040A22F232F342F4427585FF3CF46956D
:100E100037952795A795F0405395C9F77EF41F168F
:100E2000BA0B620B730B840BBAF09150A1F0FF0F59
:100E3000BB1F661F771F881FC2F70EC0BA0F621F45
:100E4000731F841F48F4879577956795B795F79535
:100E50009E3F08F0B3CF9395880F08F09927EE0FC7
:100E6000979587950895A8D008F481E008950CD04F
:100E7000DEC0D6D040F0CDD030F021F45F3F19F085
:100E8000BFC0511108C1C2C0E3D098F39923C9F380
:100E90005523B1F3951B550BBB27AA276217730780
:100EA000840738F09F5F5F4F220F331F441FAA1F34
:100EB000A9F333D00E2E3AF0E0E830D091505040F4
:100EC000E695001CCAF729D0FE2F27D0660F771FA2
:100ED000881FBB1F261737074807AB07B0E809F084
:100EE000BB0B802DBF01FF2793585F4F2AF09E3F19
:100EF000510568F085C0CFC05F3FECF3983EDCF34E
:100F0000869577956795B795F7959F5FC9F7880F91
:100F1000911D9695879597F90895E1E0660F771FE3
:100F2000881FBB1F621773078407BA0720F0621B74
:100F3000730B840BBA0BEE1F88F7E0950895E894C5
:100F400009C097FB3EF490958095709561957F4F11
:100F50008F4F9F4F9923A9F0F92F96E9BB279395BF
:100F6000F695879577956795B795F111F8CFFAF4CF
:100F7000BB0F11F460FF1BC06F5F7F4F8F4F9F4F00
:100F800016C0882311F096E911C0772321F09EE85E
:100F9000872F762F05C0662371F096E8862F70E0C4
:100FA00060E02AF09A95660F771F881FDAF7880F9E
:100FB0009695879597F90895990F0008550FAA0BF4
:100FC000E0E8FEEF16161706E807F907C0F012165C
:100FD0001306E407F50798F0621B730B840B950B5F
:100FE00039F40A2661F0232B242B252B21F40895B4
:100FF0000A2609F4A140A6958FEF811D811D089551
:1010000097F99F6780E870E060E008959FEF80ECBB
:10101000089500240A94161617061806090608955E
:1010200000240A9412161306140605060895092EC4
:101030000394000C11F4882352F0BB0F40F4BF2B33
:1010400011F460FF04C06F5F7F4F8F4F9F4F089573
:1010500057FD9058440F551F59F05F3F71F0479569
:10106000880F97FB991F61F09F3F79F0879508954E
:10107000121613061406551FF2CF4695F1DF08C06D
:10108000161617061806991FF1CF8695710561058A
:1010900008940895E894BB2766277727CB0197F932
:1010A00008950BD0C4CFB5DF28F0BADF18F0952330
:1010B00009F0A6CFABCF1124EECFCADFA0F3959FE6
:1010C000D1F3950F50E0551F629FF001729FBB272F
:1010D000F00DB11D639FAA27F00DB11DAA1F649FDB
:1010E0006627B00DA11D661F829F2227B00DA11D8E
:1010F000621F739FB00DA11D621F839FA00D611D14
:10110000221F749F3327A00D611D231F849F600D34
:10111000211D822F762F6A2F11249F5750408AF06D
:10112000E1F088234AF0EE0FFF1FBB1F661F771FF9
:10113000881F91505040A9F79E3F510570F060CF35
:10114000AACF5F3FECF3983EDCF3869577956795E1
:10115000B795F795E7959F5FC1F7FE2B880F911D17
:101160009695879597F90895FA01EE0FFF1F30962F
:101170002105310599F16115710561F48038BFE3EE
:101180009B0749F168949038810561F08038BFEF82
:101190009B0741F0992342F5FF3FE1053105210509
:1011A00011F1E8940894E795D901AA2329F4AB2F0B
:1011B000BE2FF85FD0F310C0FF5F70F4A695E0F784
:1011C000F73950F019F0FF3A38F49F779F930CD01D
:1011D0000F9007FC905808953EF018CF60E070E043
:1011E00080E89FE308954FE79F775F934F933F9386
:1011F0002F939ED02F913F914F915F9152DF05C069
:1012000019F40EF0FDCE46CF01CF2ADFC8F3963891
:10121000C0F707F80F92E8942BE33AEA48EB5FE750
:101220004EDF0F920F920F924DB75EB70F92C0D064
:10123000ECE8F0E016D04F915F91EF91FF91E595CA
:10124000EE1FFF1F49F0FE57E0684427EE0F441FD2
:10125000FA95E1F74195550B32D00F9007FE26C065
:101260000895DF93CF931F930F93FF92EF92DF9236
:101270007B018C01689405C0DA2EEF011EDFFE01B0
:10128000E894A5912591359145915591AEF3EF01E3
:1012900097DDFE019701A801DA9479F7DF90EF90CE
:1012A000FF900F911F91CF91DF9108959B01AC01A9
:1012B00060E070E080E89FE3DACDA2CEACC0D0DE83
:1012C000E8F39923D9F3940F511DBBF3915050408B
:1012D00094F059F0882332F0660F771F881F9150E1
:1012E0005040C1F79E3F510544F7880F911D9695D8
:1012F000879597F908955F3FACF0983E9CF0BB2727
:10130000869577956795B79508F4B1609395C1F781
:10131000BB0F58F711F460FFE8CF6F5F7F4F8F4F1F
:101320009F4FE3CFB8CE0EF076C070CE689468CEF3
:1013300097DEC8F39923D1F3C6F3DF93CF931F93BE
:101340000F93FF92C92FDD2788232AF02197660F7C
:10135000771F881FDAF720E030E040E85FEB9FE37B
:10136000883920F0803E30F021968F7718DDE4EB4D
:10137000F0E003C014DDE1EEF0E073DF8B01BE01AD
:10138000EC01FB2E6F5771097595771F880B990B30
:10139000D8DD28E132E741E35FE38FDEAF2D98012E
:1013A000AE01FF900F911F91CF91DF9109DD3FCEEC
:1013B000FA01DC01AA0FBB1F9B01AC01BF5728F447
:1013C00022273327442750781FC0B75188F4AB2F0A
:1013D0000024469537952795011CA395D2F300204C
:1013E00069F0220F331F441FB395DAF30DD0D6CC2A
:1013F00061307105A0E88A07B94630F49B01AC0161
:101400006627772788279078309621F020833183CC
:101410004283538308959F3F31F0915020F4879584
:1014200077956795B795880F911D9695879597F94C
:101430000895DB018F939F9349D0BF91AF91A29FF5
:10144000800D911DA39F900DB29F900D11240895C2
:10145000A1E21A2EAA1BBB1BFD010DC0AA1FBB1FB8
:10146000EE1FFF1FA217B307E407F50720F0A21B2A
:10147000B30BE40BF50B661F771F881F991F1A9497
:1014800069F760957095809590959B01AC01BD01C1
:10149000CF010895052E97FB16F400940FD057FD49
:1014A00005D0D6DF07FC02D046F408C05095409521
:1014B000309521953F4F4F4F5F4F08959095809500
:1014C000709561957F4F8F4F9F4F08950FD0A59FC7
:1014D000900DB49F900DA49F800D911D112408952F
:1014E000B7FFF4CFF3DF821B930B0895A29FB001E7
:1014F000B39FC001A39F700D811D1124911DB29F48
:10150000700D811D1124911D0895CF93DF93CDB7E8
:10151000DEB7AE014B5F5F4FFA0161917191AF0190
:101520008091AA029091AB0233D0DF91CF910895C0
:101530000F931F93CF93DF93E091AA02F091AB0238
:10154000238121FF1BC08C01D0E0C0E0F801819114
:101550008F016091AA027091AB02DB011896ED91A8
:10156000FC911997882331F00995892B79F3DFEFE6
:10157000CFEFECCF8AE00995892B19F08FEF9FEF21
:1015800002C08D2F9C2FDF91CF911F910F91089555
:101590002F923F924F925F926F927F928F929F9283
:1015A000AF92BF92CF92DF92EF92FF920F931F9371
:1015B000CF93DF93CDB7DEB72B970FB6F894DEBF8E
:1015C0000FBECDBF6C017B018A01FC011782168220
:1015D000838181FFBFC1CE0101963C01F601938159
:1015E000F70193FD859193FF81917F01882309F491
:1015F000ADC1853239F493FD859193FF81917F01CF
:10160000853221F4B60190E0D6D1E8CF912C212C7F
:10161000312CFFE1F315D8F08B3279F038F48032B9
:1016200079F08332A1F4232D20611DC08D3261F049
:10163000803369F4232D216016C0832D8260382EFB
:10164000E32DE4603E2E2AC0F32DF8601DC037FC68
:101650002DC020ED280F2A3040F08E32B9F436FC30
:1016600075C1232D2064322E19C036FE06C08AE0D3
:10167000989E200D1124922E11C0EAE02E9E200D7E
:101680001124222EF32DF0623F2E08C08C3621F457
:10169000832D8068382E02C0883641F4F70193FD0F
:1016A000859193FF81917F018111B3CF982F9F7D09
:1016B0009554933028F40C5F1F4F9FE399830DC01E
:1016C000833631F0833771F0833509F055C020C07F
:1016D000F801808189830E5F1F4F88248394912CA9
:1016E000530112C02801F2E04F0E511CF801A080F6
:1016F000B18036FE03C0692D70E002C06FEF7FEF4E
:10170000C5014ED14C018201F32DFF773F2E15C04C
:10171000280122E0420E511CF801A080B18036FE63
:1017200003C0692D70E002C06FEF7FEFC5012DD1BE
:101730004C01F32DF0683F2E820133FC19C0822D3D
:1017400090E088169906A0F4B60180E290E033D1CB
:101750002A94F5CFF50137FC859137FE81915F0121
:10176000B60190E028D121102A9421E0821A910834
:101770008114910479F7E1C0843611F0893639F586
:10178000F80137FE07C060817181828193810C5F0F
:101790001F4F08C060817181072E000C880B990BC8
:1017A0000E5F1F4FF32DFF763F2E97FF09C09095D8
:1017B0008095709561957F4F8F4F9F4FF0683F2EBA
:1017C0002AE030E0A30133D1882E861844C0853743
:1017D00031F4232D2F7EB22E2AE030E025C0932D48
:1017E000997FB92E8F36C1F018F4883579F0AEC0E4
:1017F000803719F0883721F0A9C0E92FE061BE2EAB
:10180000B4FE0DC0FB2DF460BF2E09C034FE0AC02B
:10181000292F2660B22E06C028E030E005C020E166
:1018200030E002C020E132E0F801B7FE07C060817D
:101830007181828193810C5F1F4F06C0608171812D
:1018400080E090E00E5F1F4FA301F1D0882E861834
:10185000FB2DFF773F2E36FE0DC0232D2E7FA22EAF
:10186000891458F434FE0BC032FC09C0832D8E7EDF
:10187000A82E05C0B82CA32C03C0B82C01C0B92CCD
:10188000A4FE0FC0FE01E80DF11D8081803321F41C
:101890009A2D997EA92E09C0A2FE06C0B394B394D6
:1018A00004C08A2D867809F0B394A3FC10C0A0FE72
:1018B00006C0B21480F4280C922C9B180DC0B214F0
:1018C00058F4B60180E290E076D0B394F8CFB21429
:1018D00018F42B1802C0982C212CA4FE0FC0B601BE
:1018E00080E390E068D0A2FE16C0A1FC03C088E7A8
:1018F00090E002C088E590E0B6010CC08A2D8678A1
:1019000051F0A1FE02C08BE201C080E2A7FC8DE293
:10191000B60190E050D0891430F4B60180E390E035
:101920004AD09A94F8CF8A94F301E80DF11D808192
:10193000B60190E040D08110F6CF222009F44ECEBF
:10194000B60180E290E037D02A94F7CFF601868185
:10195000978102C08FEF9FEF2B960FB6F894DEBFF2
:101960000FBECDBFDF91CF911F910F91FF90EF90F0
:10197000DF90CF90BF90AF909F908F907F906F90AF
:101980005F904F903F902F900895FC01059061501B
:1019900070400110D8F7809590958E0F9F1F089585
:1019A000FC016150704001900110D8F7809590952E
:1019B0008E0F9F1F08950F931F93CF93DF93FB010B
:1019C000238121FD03C08FEF9FEF2CC022FF16C0A3
:1019D00046815781248135814217530744F4A08101
:1019E000B1819D012F5F3F4F318320838C932681EE
:1019F00037812F5F3F4F3783268314C08B01EC0163
:101A0000FB010084F185E02D0995892BE1F6D801D1
:101A100016968D919C911797019617969C938E938D
:101A20001697CE01DF91CF911F910F910895FA0182
:101A3000AA27283051F1203181F1E8946F936E7F0D
:101A40006E5F7F4F8F4F9F4FAF4FB1E03ED0B4E0FE
:101A50003CD0670F781F891F9A1FA11D680F791F3F
:101A60008A1F911DA11D6A0F711D811D911DA11D50
:101A700020D009F468943F912AE0269F1124301960
:101A8000305D3193DEF6CF010895462F4770405DFB
:101A90004193B3E00FD0C9F7F6CF462F4F70405DAA
:101AA0004A3318F0495D31FD4052419302D0A9F705
:101AB000EACFB4E0A6959795879577956795BA95FF
:101AC000C9F700976105710508959B01AC010A2EC5
:101AD00006945795479537952795BA95C9F7620F9C
:0E1AE000731F841F951FA01D0895F894FFCF5B
:101AEE0000000002000000009405000000000A64DF
:101AFE0069675F5431203D2025690A006469675F7C
:101B0E005432203D2025690A006469675F543320F2
:101B1E003D2025690A006469675F5031203D20250C
:101B2E00690A006469675F5032203D2025690A000A
:101B3E006469675F5033203D2025690A0064696738
:101B4E005F5034203D2025690A006469675F503577
:101B5E00203D2025690A006469675F5036203D20CC
:101B6E0025690A006469675F5037203D2025690AA0
:101B7E00006469675F5038203D2025690A0064695A
:101B8E00675F5039203D2025690A000A48656C00C0
:101B9E000A3030303030303030303030303030305D
:101BAE003030303030303030303030303030303027
:101BBE003030000A31313131313131313131313161
:101BCE00000A323232323232323232323232323241
:101BDE0032323232323232323232323200414458C2
:101BEE004C20494E4954204F4B004144584C2049FB
:101BFE004E4954204E4F54204F4B003131312F6EF1
:101C0E000074656D70203D2025640A207072657326
:101C1E0073203D2025660A20616C74203D202566C8
:101C2E000A0078203D2025662079203D202566205B
:101C3E007A203D2025662F6E0063686964203D2062
:101C4E00252E32580A0074656D7065726174757256
:101C5E0065286473313862323029203D20256400B6
:0A1C6E004F75747075743A20000081
:00000001FF
