:1000000007C1000023C1000021C100001FC1000082
:100010001DC100001BC1000019C1000017C1000074
:1000200015C1000013C1000011C100000FC1000084
:100030000DC100000BC1000009C1000007C1000094
:1000400005C1000003C1000001C10000FFC00000A5
:10005000FDC00000FBC00000F9C00000F7C00000B8
:10006000F5C00000F3C00000F1C00000EFC00000C8
:10007000EDC00000EBC00000E9C00000E7C00000D8
:10008000E5C00000E3C00000E1C0000007634236A5
:10009000B79BD8A71A39685618AEBAAB558C1D3C19
:1000A000B7CC5763BD6DEDFD753EF6177231BF00DD
:1000B0000000803F08000000BE922449123EABAA17
:1000C000AA2ABECDCCCC4C3E00000080BEABAAAA72
:1000D000AA3E00000000BF000000803F00000000BA
:1000E00000084178D3BB4387D1133D190E3CC3BDF3
:1000F0004282AD2B3E68EC8276BED98FE1A93E4CA0
:1001000080EFFFBE01C4FF7F3F00000000006E6172
:100110006E00696E660000407A10F35A00A0724EBD
:1001200018090010A5D4E80000E87648170000E49C
:100130000B54020000CA9A3B000000E1F5050000E4
:1001400080969800000040420F000000A086010049
:100150000000102700000000E80300000000640019
:10016000000000000A000000000001000000000084
:100170002C76D888DC674F0823DFC1DFAE59E1B1A8
:10018000B796E5E3E453C63AE651997696E8E6C2B7
:100190008426EB898C9B62ED407C6FFCEFBC9C9FBE
:1001A00040F2BAA56FA5F490055A2AF75C936B6CE0
:1001B000F9676DC11BFCE0E40D47FEF520E6B500D4
:1001C000D0ED902E0300943577050080841E080042
:1001D00000204E0A000000C80C333333330F986EF2
:1001E00012831141EF8D2114893BE65516CFFEE6AF
:1001F000DB18D1844B381BF77C1D901DA4BBE42475
:10020000203284725E228100C9F124ECA1E53D27F1
:1002100011241FBECFEFD0E1DEBFCDBF12E0A0E0C2
:10022000B1E0E4E9FEE100E00BBF02C007900D92EF
:10023000A63AB107D9F722E0A6EAB2E001C01D92C2
:10024000A93CB207E1F75ED40C94480FD9CE462FF3
:10025000682F8091B00203C40895CF93DF931F925B
:10026000CDB7DEB79E012F5F3F4F41E0682F8091F1
:10027000B00214D489810F90DF91CF910895CF936C
:10028000DF9300D0CDB7DEB79E012F5F3F4F42E036
:10029000682F8091B00202D4898190E0982F88273E
:1002A0002A81822B0F900F90DF91CF910895E7DF85
:1002B0009827892798270895CF93DF9300D01F921E
:1002C000CDB7DEB79E012F5F3F4F43E0682F80918F
:1002D000B002E4D36981862F90E0A0E0B0E0BA2FAD
:1002E000A92F982F88272A81822BBA2FA92F982FE0
:1002F00088272B81BC01CD01622B0F900F900F90AE
:10030000DF91CF91089588E8D2DF9093A90280937E
:10031000A8028AE8CCDF9093AB028093AA028CE813
:10032000C6DF9093BC028093BB028EE8C0DF90933F
:10033000B4028093B30280E9BADF9093AD02809358
:10034000AC0282E9B4DF9093B6028093B50284E9EF
:10035000AEDF9093AF028093AE0286E9A8DF909360
:10036000B2028093B10288E9A2DF9093BE0280932B
:10037000BD028AE99CDF9093A7028093A6028CE9D4
:1003800096DF9093B8028093B7028EE990DF909346
:10039000BA028093B9028091A9028F938091A8023A
:1003A0008F938EE091E09F938F930E94A70E809190
:1003B000AB028F938091AA028F938CE191E09F937F
:1003C0008F930E94A70E8091BC028F938091BB02F5
:1003D0008F9389E291E09F938F930E94A70E809163
:1003E000B4028F938091B3028F9386E391E09F9341
:1003F0008F930E94A70E8091AD028F938091AC02E3
:100400008F9383E491E09F938F930E94A70E809136
:10041000B6028F938091B5028F9380E591E09F9310
:100420008F930E94A70E8091AF028F938091AE02AE
:100430008F938DE591E09F938F930E94A70E8091FB
:10044000B2028F938091B1028F938AE691E09F93DD
:100450008F930E94A70E8DB79EB780960FB6F89423
:100460009EBF0FBE8DBF8091BE028F938091BD0253
:100470008F9387E791E09F938F930E94A70E8091BF
:10048000A7028F938091A6028F9384E891E09F93B7
:100490008F930E94A70E8091B8028F938091B7022C
:1004A0008F9381E991E09F938F930E94A70E809193
:1004B000BA028F938091B9028F938EE991E09F9356
:1004C0008F930E94A70E8DB79EB740960FB6F894F3
:1004D0009EBF0FBE8DBF0895CF93C82F8BEA91E0CA
:1004E0000E94BA0EC093B00280EB91E00E94BA0E57
:1004F00080EDB3DE883581F483ED91E00E94BA0E81
:1005000002DF81EE91E00E94BA0E68E685EF9FDE81
:1005100085EFA3DE81E001C080E0CF9108958F9246
:100520009F92AF92BF92CF92DF92EF92FF920F9382
:100530001F938AEFC1DE0091A8021091A90220E06A
:1005400030E0C72ED82EE92EFF24E7FCFA94C01A1B
:10055000D10AE20AF30ADC01CB01689416F8B595DA
:10056000A795979587951694D1F7000F111F221F15
:10057000331F4C015D01801A910AA20AB30AA5013A
:100580009401A091AA02B091AB020E94680D4B01A8
:100590005C01072E7BE0B594A794979487947A9595
:1005A000D1F7702DA7019601C701B6010E94FD0C7D
:1005B0009B01AC01012E1CE0559547953795279579
:1005C0001A95D1F7102DA091BB02B091BC020E94E8
:1005D000680DDC01CB01072E7EE0B595A7959795B8
:1005E00087957A95D1F7702D880D991DAA1DBB1D91
:1005F0008093BF029093C002A093C102B093C20245
:100600008C019D01000F111F221F331F000F111FAE
:10061000221F331F800F911FA21FB31F80589F4FAF
:10062000AF4FBF4F692F7A2F8B2F992787FD9A9550
:100630001F910F91FF90EF90DF90CF90BF90AF9000
:100640009F908F9008954F925F926F927F928F92BA
:100650009F92AF92BF92CF92DF92EF92FF92CF9391
:10066000DF9300D000D000D0CDB7DEB77C017E8311
:100670006D8355DFF701608371838283938387EFF6
:100680001BDE2B013C016091BF027091C002809182
:10069000C1029091C202B0D320E030E040E05FE3BD
:1006A0005BD420E030E04AE757E4D3D26B017C0111
:1006B0006091B5027091B602072E000C880B990B61
:1006C0009BD3A701960148D4A701960145D420E009
:1006D00030E040E056E340D44B015C016091AC0255
:1006E0007091AD02072E000C880B990B85D3A701E2
:1006F000960132D49B01AC01C501B401ABD220E01C
:1007000030E040E056E328D420E030E040E058E319
:1007100023D420E030E040E85FE39CD24B015C0151
:100720006091B3027091B40280E090E063D3A501C0
:10073000940112D44B015C0120E030E0A901EED21B
:10074000811107C0ED81FE81108211821282138215
:10075000C6C06091BD027091BE02072E000C880BCE
:10076000990B4AD369837A838B839C83A701960173
:10077000C701B601F1D39B01AC0169817A818B81FC
:100780009C81EAD320E030E040E058E3E5D3698380
:100790007A838B839C836091B1027091B202072EA1
:1007A000000C880B990B28D3A7019601D5D39B0188
:1007B000AC0150D229813A814B815C814BD220E03F
:1007C00030E040E85EE3C8D36B017C01C301B201B5
:1007D000689413F895958795779567951694D1F752
:1007E0000BD39B01AC0160E070E080E899E431D26A
:1007F0002B013C016091AE027091AF02072E000CFC
:10080000880B990BF9D220E030E040E857E4A4D3FC
:10081000A70196011FD220E030E040E859E39CD3C5
:100820009B01AC01C301B20114D220E030E543ECDE
:1008300055E492D3A501940175D26B017C01ED8141
:10084000FE8160837183828393836091B90270918A
:10085000BA02072E000C880B990BCED2A701960185
:100860007BD3A701960178D320E030E040E050E34D
:1008700073D34B015C016091B7027091B802072EEF
:10088000000C880B990BB8D2A701960165D320E024
:1008900030E040E058E360D39B01AC01C501B401F6
:1008A000D9D14B015C016091A6027091A702072E7D
:1008B000000C880B990BA0D29B01AC01C501B401BF
:1008C000C9D120E030E040E85DE346D3A7019601BE
:1008D000C1D1ED81FE8160837183828393832696EB
:1008E0000FB6F894DEBF0FBECDBFDF91CF91FF9062
:1008F000EF90DF90CF90BF90AF909F908F907F90C0
:100900006F905F904F90089520E836EE45EC57E4E5
:10091000FC01608171818281938104D222E63BEDEA
:1009200042E45EE37CD39B01AC0160E070E080E8D0
:100930009FE38FD120E03AE24DE257E40DC3EF92FE
:10094000FF920F931F93CF93DF937C01EB018A01FA
:1009500065E584EF7CDC2FEF82E191E0215080405F
:100960009040E1F700C00000BE01C7016CDECE017F
:10097000CBDFF801608371838283938381E0DF9111
:10098000CF911F910F91FF90EF9008950E940C0D51
:1009900060517109769567956093700010927100AF
:1009A000E4E7F0E0808184608083089584EA8093A6
:1009B0007400E4E7F0E080818823ECF7089584E98F
:1009C00080937400E4E7F0E0808184FDFDCF08951A
:1009D0008093730084E880937400E4E7F0E0808102
:1009E0008823ECF780917100887F883169F08091CD
:1009F0007100887F883251F090917100987F81E07A
:100A0000903429F080E0089581E0089581E0089510
:100A1000DC01662331F0E4E7F0E09081906490839C
:100A200005C0E4E7F0E090819F7B9083E4E7F0E08D
:100A300090819068908390819923ECF79091710058
:100A4000987F983529F090917100987F903529F41E
:100A5000809173008C9381E0089580E008951F9346
:100A6000CF93DF93182FD62FC42FA0DF812F880FAD
:100A7000AFDF8D2FADDF8C2FABDF8FE19EE40197D1
:100A8000F1F700C000009BDF8FED9EE20197F1F7C8
:100A900000C00000DF91CF911F910895FF920F9346
:100AA0001F93CF93DF93182FF62E042FE9017EDFDB
:100AB000110F812F8DDF8F2D8BDF78DF81E0810F8C
:100AC00087DF002369F0015010E00F5F1F4F0C0F0C
:100AD0001D1F61E0CE019CDF2196C017D107C9F729
:100AE000DF91CF911F910F91FF900895CF93C82F61
:100AF0008A3011F48DE0FADF8C2FA7D080E090E0EF
:100B0000CF910895CF93DF93CDB7DEB72C970FB673
:100B1000F894DEBF0FBECDBF80E895E27BD020EA1F
:100B200036E841E050E060E072E18AE790E02EDFD5
:100B300080E091E09093C6028093C5028DEF91E032
:100B40000E94BA0E8EE092E00E94BA0E86E7C4DCE4
:100B5000182F8BE192E00E94BA0E1F921F930E9401
:100B6000A70E0F900F90113069F48DE292E00E9471
:100B7000BA0E0F2EFDE5EF2EF2E0FF2EF02D08E964
:100B800012E005C083E492E00E94BA0EF2CFAE01FB
:100B9000475F5F4FBE016B5F7F4FCE010196CFDE97
:100BA0008130F1F48C858F938B858F938A858F9319
:100BB00089858F9388858F938F818F938E818F9373
:100BC0008D818F938A818F9389818F93FF92EF928A
:100BD0000E94A70E0FB6F894DEBF0FBECDBF04C0B3
:100BE0008EE792E00E94BA0E80ED37DB1F928F9362
:100BF0001F930F930E94A70E9FEF29E688E1915063
:100C000020408040E1F700C000000F900F900F904F
:100C10000F90BDCF9C0140E050E060E271EA87E0B8
:100C200090E030D7BA01A901415051096109710919
:100C3000BB27A72F962F852F8093900049B988E175
:100C40008AB986E08093950008955D9BFECF8CB9AC
:100C500008955058BB27AA270ED044C135D130F093
:100C60003AD120F031F49F3F11F41EF42AC10EF462
:100C7000E095E7FB20C1E92F46D180F3BA17620760
:100C800073078407950718F071F49EF55EC10EF4A2
:100C9000E0950B2EBA2FA02D0B01B90190010C018C
:100CA000CA01A0011124FF27591B99F0593F50F4A4
:100CB000503E68F11A16F040A22F232F342F4427FC
:100CC000585FF3CF469537952795A795F0405395F4
:100CD000C9F77EF41F16BA0B620B730B840BBAF0C4
:100CE0009150A1F0FF0FBB1F661F771F881FC2F72F
:100CF0000EC0BA0F621F731F841F48F48795779543
:100D00006795B795F7959E3F08F0B3CF9395880FF9
:100D100008F09927EE0F979587950895A8D008F4C5
:100D200081E008950CD0DEC0D6D040F0CDD030F0B8
:100D300021F45F3F19F0BFC0511108C1C2C0E3D018
:100D400098F39923C9F35523B1F3951B550BBB2792
:100D5000AA2762177307840738F09F5F5F4F220F3F
:100D6000331F441FAA1FA9F333D00E2E3AF0E0E838
:100D700030D091505040E695001CCAF729D0FE2F84
:100D800027D0660F771F881FBB1F26173707480716
:100D9000AB07B0E809F0BB0B802DBF01FF279358CC
:100DA0005F4F2AF09E3F510568F085C0CFC05F3F7E
:100DB000ECF3983EDCF3869577956795B795F795B4
:100DC0009F5FC9F7880F911D9695879597F90895AC
:100DD000E1E0660F771F881FBB1F62177307840748
:100DE000BA0720F0621B730B840BBA0BEE1F88F757
:100DF000E0950895E89409C097FB3EF4909580959E
:100E0000709561957F4F8F4F9F4F9923A9F0F92FD0
:100E100096E9BB279395F695879577956795B7954E
:100E2000F111F8CFFAF4BB0F11F460FF1BC06F5F34
:100E30007F4F8F4F9F4F16C0882311F096E911C046
:100E4000772321F09EE8872F762F05C0662371F067
:100E500096E8862F70E060E02AF09A95660F771F7B
:100E6000881FDAF7880F9695879597F90895990F57
:100E70000008550FAA0BE0E8FEEF16161706E80764
:100E8000F907C0F012161306E407F50798F0621B85
:100E9000730B840B950B39F40A2661F0232B242B5A
:100EA000252B21F408950A2609F4A140A6958FEF79
:100EB000811D811D089597F99F6780E870E060E0CB
:100EC00008959FEF80EC089500240A9416161706E3
:100ED00018060906089500240A941216130614062B
:100EE00005060895092E0394000C11F4882352F08E
:100EF000BB0F40F4BF2B11F460FF04C06F5F7F4F46
:100F00008F4F9F4F089557FD9058440F551F59F02C
:100F10005F3F71F04795880F97FB991F61F09F3FE6
:100F200079F087950895121613061406551FF2CF0F
:100F30004695F1DF08C0161617061806991FF1CF5F
:100F400086957105610508940895E894BB27662786
:100F50007727CB0197F908950BD0C4CFB5DF28F0E0
:100F6000BADF18F0952309F0A6CFABCF1124EECF4E
:100F7000CADFA0F3959FD1F3950F50E0551F629FF4
:100F8000F001729FBB27F00DB11D639FAA27F00DE2
:100F9000B11DAA1F649F6627B00DA11D661F829F09
:100FA0002227B00DA11D621F739FB00DA11D621FEE
:100FB000839FA00D611D221F749F3327A00D611D0B
:100FC000231F849F600D211D822F762F6A2F1124ED
:100FD0009F5750408AF0E1F088234AF0EE0FFF1F40
:100FE000BB1F661F771F881F91505040A9F79E3F77
:100FF000510570F060CFAACF5F3FECF3983EDCF371
:10100000869577956795B795F795E7959F5FC1F7B3
:10101000FE2B880F911D9695879597F90895FA01F3
:10102000EE0FFF1F30962105310599F1611571050D
:1010300061F48038BFE39B0749F1689490388105DB
:1010400061F08038BFEF9B0741F0992342F5FF3FE5
:10105000E1053105210511F1E8940894E795D901DE
:10106000AA2329F4AB2FBE2FF85FD0F310C0FF5F87
:1010700070F4A695E0F7F73950F019F0FF3A38F41C
:101080009F779F930CD00F9007FC905808953EF0E7
:1010900018CF60E070E080E89FE308954FE79F7706
:1010A0005F934F933F932F939ED02F913F914F91FA
:1010B0005F9152DF05C019F40EF0FDCE46CF01CF8F
:1010C0002ADFC8F39638C0F707F80F92E8942BE3AD
:1010D0003AEA48EB5FE74EDF0F920F920F924DB75F
:1010E0005EB70F92C0D0ECE8F0E016D04F915F9160
:1010F000EF91FF91E595EE1FFF1F49F0FE57E06865
:101100004427EE0F441FFA95E1F74195550B32D075
:101110000F9007FE26C00895DF93CF931F930F9380
:10112000FF92EF92DF927B018C01689405C0DA2E6A
:10113000EF011EDFFE01E894A591259135914591BF
:101140005591AEF3EF0197DDFE019701A801DA9406
:1011500079F7DF90EF90FF900F911F91CF91DF9182
:1011600008959B01AC0160E070E080E89FE3DACD78
:10117000A2CEACC0D0DEE8F39923D9F3940F511D71
:10118000BBF39150504094F059F0882332F0660F31
:10119000771F881F91505040C1F79E3F510544F77B
:1011A000880F911D9695879597F908955F3FACF04C
:1011B000983E9CF0BB27869577956795B79508F480
:1011C000B1609395C1F7BB0F58F711F460FFE8CFFA
:1011D0006F5F7F4F8F4F9F4FE3CFB8CE0EF076C03B
:1011E00070CE689468CE97DEC8F39923D1F3C6F326
:1011F000DF93CF931F930F93FF92C92FDD2788238F
:101200002AF02197660F771F881FDAF720E030E079
:1012100040E85FEB9FE3883920F0803E30F0219674
:101220008F7718DDE4EBF0E003C014DDE1EEF0E0D1
:1012300073DF8B01BE01EC01FB2E6F5771097595B1
:10124000771F880B990BD8DD28E132E741E35FE394
:101250008FDEAF2D9801AE01FF900F911F91CF91BE
:10126000DF9109DD3FCEFA01DC01AA0FBB1F9B0114
:10127000AC01BF5728F422273327442750781FC0DA
:10128000B75188F4AB2F0024469537952795011C5C
:10129000A395D2F3002069F0220F331F441FB395AA
:1012A000DAF30DD0D6CC61307105A0E88A07B946D3
:1012B00030F49B01AC016627772788279078309619
:1012C00021F0208331834283538308959F3F31F07F
:1012D000915020F4879577956795B795880F911D64
:1012E0009695879597F908952F923F924F925F9226
:1012F0006F927F928F929F92AF92BF92CF92DF9226
:10130000EF92FF920F931F93CF93DF93CDB7DEB78A
:1013100060970FB6F894DEBF0FBECDBF7C011B01F6
:101320006A01FC0117821682838181FF2AC39E0114
:101330002F5F3F4F3901F7019381F10193FD8591B3
:1013400093FF81911F01882309F417C3853239F473
:1013500093FD859193FF81911F01853231F4B7018F
:1013600090E0B9D456016501E6CF10E0512C912CE4
:10137000FFE1F915D8F08B3279F038F4803279F04A
:101380008332A1F4F92DF0612EC08D3261F08033EB
:1013900069F4292D21602DC0392D3260932E892DBD
:1013A0008460982E2AC0E92DE86015C097FC2DC0F6
:1013B00020ED280F2A3088F496FE06C03AE0139FED
:1013C000200D1124122F19C08AE0589E200D1124DF
:1013D000522EE92DE0629E2E10C08E3231F496FC22
:1013E000CCC2F92DF0649F2E08C08C3621F4292D33
:1013F0002068922E02C0883641F4F10193FD859158
:1014000093FF81911F018111B3CF9BEB980F933014
:1014100020F4992D9061805E07C09BE9980F93306E
:1014200008F059C1992D9F7E96FF16E09F73992E63
:10143000853619F49064992E08C0863621F4392F28
:101440003068932E02C01111115097FE07C01C3353
:1014500050F444244394410E27E00BC0183038F078
:1014600027E017E005C027E09CE3492E02C0212FAA
:10147000412C560184E0A80EB11CF60160817181F7
:1014800082819381042DA30138D36C01F981FC87FB
:10149000F0FF02C0F3FF06C091FC06C092FE06C03A
:1014A00000E205C00DE203C00BE201C000E08C8544
:1014B0008C7019F0011143C280C297FE10C04C0C11
:1014C000FC85F4FF04C08A81813309F44A94141422
:1014D00074F528E0241578F588E0482E2CC096FC99
:1014E0002AC0812F90E08C159D059CF03CEFC3161F
:1014F0003FEFD30674F0892D8068982E0AC0E2E091
:10150000F0E0EC0FFD1FE10FF11D8081803319F435
:1015100011501111F4CF97FE0EC044244394410E94
:10152000812F90E0C816D9062CF41C1904C044245D
:10153000439401C010E097FE06C01C141D0434F44F
:10154000C601019605C085E090E002C081E090E010
:1015500001110196112331F0212F30E02F5F3F4F11
:10156000820F931F252D30E08217930714F4581A29
:1015700001C0512C892D897041F4552031F0B701FB
:1015800080E290E0A8D35A94F8CF002321F0B7016D
:10159000802F90E0A0D393FC08C0552031F0B70114
:1015A00080E390E098D35A94F8CF97FE4AC0460162
:1015B000D7FE02C0812C912CC60188199909F3012C
:1015C000E80FF91FFE87ED87960124193109388B42
:1015D0002F87012F10E01195019511093FEF831618
:1015E000930621F4B7018EE290E075D3C814D904B4
:1015F0004CF08F8598898815990524F4ED85FE8532
:10160000818101C080E3F1E08F1A91082D853E852C
:101610002F5F3F4F3E872D878016910624F0B7013C
:1016200090E059D3DBCFC814D90441F49A819633A2
:1016300020F4953319F43C8534FF81E3B70190E041
:1016400048C08A81813319F09C859F7E9C87B701B1
:1016500090E041D3111105C094FC16C085E690E0DE
:1016600015C0B7018EE290E036D31E5F82E001E044
:10167000080FF301E80FF11D8081B70190E02BD333
:10168000802F0113F4CFE8CF85E490E0B70123D396
:10169000D7FC06C0C114D10441F4EC85E4FF05C0B9
:1016A000D194C194D1088DE201C08BE2B70190E0E2
:1016B00012D380E32AE0C216D1042CF08F5FFAE047
:1016C000CF1AD108F7CFB70190E005D3B701C60113
:1016D000C09601D349C1833631F0833779F0833521
:1016E00009F052C01FC0560132E0A30EB11CF60132
:1016F0008081898301E010E0630111C05601F2E0AE
:10170000AF0EB11CF601C080D18096FE03C0612FE0
:1017100070E002C06FEF7FEFC601D2D28C01F92DCD
:10172000FF7713C0560122E0A20EB11CF601C08063
:10173000D18096FE03C0612F70E002C06FEF7FEF93
:10174000C601B3D28C01F92DF0689F2EF3FD18C0AD
:10175000852D90E00817190798F4B70180E290E012
:10176000BAD25A94F5CFF60197FC859197FE8191F4
:101770006F01B70190E0AFD251105A940150110996
:101780000115110581F7F0C0843611F0893659F53D
:10179000560197FE09C024E0A20EB11CF60160813B
:1017A0007181828193810AC0F2E0AF0EB11CF60113
:1017B00060817181072E000C880B990BF92DFF7643
:1017C0009F2E97FF09C090958095709561957F4FEA
:1017D0008F4F9F4FF0689F2E2AE030E0A301FAD28E
:1017E000C82EC6183EC0092D853721F40F7E2AE089
:1017F00030E01DC0097F8F3691F018F4883559F01C
:10180000BCC0803719F0883711F0B7C0006104FF01
:1018100009C0046007C094FE08C0066006C028E046
:1018200030E005C020E130E002C020E132E05601A6
:1018300007FF09C084E0A80EB11CF6016081718128
:101840008281938108C0F2E0AF0EB11CF601608185
:10185000718180E090E0A301BDD2C82EC6180F7739
:10186000902E96FE0BC0092D0E7FC11650F494FEEB
:101870000AC092FC08C0092D0E7E05C0DC2C092D83
:1018800003C0DC2C01C0D12E04FF0DC0FE01EC0D05
:10189000F11D8081803311F4097E09C002FF06C06A
:1018A000D394D39404C0802F867809F0D39403FD99
:1018B00010C000FF06C01C2DD51478F4150D1D199D
:1018C0000CC0D51450F4B70180E290E004D2D39458
:1018D000F8CFD51410F45D1801C0512C04FF0FC0CF
:1018E000B70180E390E0F7D102FF16C001FD03C00D
:1018F00088E790E002C088E590E0B7010CC0802F37
:10190000867851F001FF02C08BE201C080E207FD42
:101910008DE2B70190E0DFD1C11630F4B70180E36A
:1019200090E0D9D11150F8CFCA94F301EC0DF11D1C
:101930008081B70190E0CFD1C110F6CF15C0F4E09F
:10194000F51550F584E0581A93FE1EC0011125C00C
:101950002C8523FF27C00EE011E0392D3071932E26
:10196000F8018491811121C0552009F4FCCCB70104
:1019700080E290E0B0D15A94F7CFF7018681978149
:1019800023C08FEF9FEF20C0B70180E290E0A3D18A
:101990005A945110F9CFDACF512CB701802F90E033
:1019A0009AD1D6CF02E111E0D8CF91108052B70181
:1019B00090E091D10F5F1F4FD3CF23E0251510F496
:1019C00083E0C1CF512CC4CF60960FB6F894DEBF30
:1019D0000FBECDBFDF91CF911F910F91FF90EF9080
:1019E000DF90CF90BF90AF909F908F907F906F903F
:1019F0005F904F903F902F900895DB018F939F93BE
:101A00005DD0BF91AF91A29F800D911DA39F900DBE
:101A1000B29F900D11240895AA1BBB1B51E107C072
:101A2000AA1FBB1FA617B70710F0A61BB70B881F6E
:101A3000991F5A95A9F780959095BC01CD010895FD
:101A4000A1E21A2EAA1BBB1BFD010DC0AA1FBB1FC2
:101A5000EE1FFF1FA217B307E407F50720F0A21B34
:101A6000B30BE40BF50B661F771F881F991F1A94A1
:101A700069F760957095809590959B01AC01BD01CB
:101A8000CF010895052E97FB16F400940FD057FD53
:101A900005D0D6DF07FC02D046F408C0509540952B
:101AA000309521953F4F4F4F5F4F0895909580950A
:101AB000709561957F4F8F4F9F4F08950FD0A59FD1
:101AC000900DB49F900DA49F800D911D1124089539
:101AD000B7FFF4CFF3DF821B930B0895A29FB001F1
:101AE000B39FC001A39F700D811D1124911DB29F52
:101AF000700D811D1124911D0895283008F027E0F4
:101B00003327DA01990F311D87FD91600096610539
:101B1000710539F432602E5F3D9330E32A95E1F789
:101B200008959F3F30F080387105610509F03C5FF2
:101B30003C5F3D93913008F08068911DDF93CF9317
:101B40001F930F93FF92EF92192F987F9695E92F8D
:101B500096959695E90FFF27E059FE4F9927332771
:101B6000EE24FF24A701E70105900894079428F4C8
:101B7000360FE71EF81E491F511D660F771F881F7D
:101B8000991F0694A1F70590079428F4E70EF81E14
:101B9000491F561FC11D770F881F991F661F069486
:101BA000A1F70590079428F4F80E491F561FC71F88
:101BB000D11D880F991F661F771F0694A1F7059006
:101BC000079420F4490F561FC71FD81F990F661F8F
:101BD000771F881F0694A9F784911095177041F01C
:101BE000D695C79557954795F794E7941A95C1F7F9
:101BF000E6E1F1E068941590159135916591959124
:101C000005907FE27395E118F10A430B560BC90B5F
:101C1000D009C0F7E10CF11E431F561FC91FD01D8C
:101C20007EF4703311F48A95E6CFE894015030F0D9
:101C3000080F0AF40027021708F4202F2395022F1B
:101C40007A3328F079E37D932A95E9F710C07D93E4
:101C50002A9589F606949795679537951795179461
:101C6000E118F10A430B560BC90BD00998F02395E4
:101C70007E9173957A3308F070E37C932013B8F764
:101C80007E9170617D9330F0839571E37D9370E375
:101C90002A95E1F71124EF90FF900F911F91CF91BA
:101CA000DF91992787FD90950895FC01059061507B
:101CB00070400110D8F7809590958E0F9F1F089562
:101CC000FC016150704001900110D8F7809590950B
:101CD0008E0F9F1F08950F931F93CF93DF93FB01E8
:101CE000238121FD03C08FEF9FEF2CC022FF16C080
:101CF00046815781248135814217530744F4A081DE
:101D0000B1819D012F5F3F4F318320838C932681CA
:101D100037812F5F3F4F3783268314C08B01EC013F
:101D2000FB010084F185E02D0995892BE1F6D801AE
:101D300016968D919C911797019617969C938E936A
:101D40001697CE01DF91CF911F910F910895CF93F8
:101D5000DF93CDB7DEB7AE014B5F5F4FFA01619104
:101D60007191AF018091C5029091C602BDDADF91F9
:101D7000CF9108950F931F93CF93DF93E091C50206
:101D8000F091C602238121FF1BC08C01D0E0C0E08E
:101D9000F80181918F016091C5027091C602DB014B
:101DA0001896ED91FC911997882331F00995892BAC
:101DB00079F3DFEFCFEFECCF8AE00995892B19F0AB
:101DC0008FEF9FEF02C08D2F9C2FDF91CF911F913E
:101DD0000F910895FA01AA27283051F1203181F19D
:101DE000E8946F936E7F6E5F7F4F8F4F9F4FAF4F23
:101DF000B1E03ED0B4E03CD0670F781F891F9A1F36
:101E0000A11D680F791F8A1F911DA11D6A0F711DE9
:101E1000811D911DA11D20D009F468943F912AE0F5
:101E2000269F11243019305D3193DEF6CF010895DD
:101E3000462F4770405D4193B3E00FD0C9F7F6CF0E
:101E4000462F4F70405D4A3318F0495D31FD4052D6
:101E5000419302D0A9F7EACFB4E0A695979587956C
:101E600077956795BA95C9F700976105710508954B
:101E70009B01AC010A2E06945795479537952795F7
:101E8000BA95C9F7620F731F841F951FA01D08958F
:041E9000F894FFCFF4
:101E940000000002000000007605000000000A6453
:101EA40069675F5431203D2025690A006469675FD2
:101EB4005432203D2025690A006469675F54332049
:101EC4003D2025690A006469675F5031203D202563
:101ED400690A006469675F5032203D2025690A0061
:101EE4006469675F5033203D2025690A006469678F
:101EF4005F5034203D2025690A006469675F5035CE
:101F0400203D2025690A006469675F5036203D2022
:101F140025690A006469675F5037203D2025690AF6
:101F2400006469675F5038203D2025690A006469B0
:101F3400675F5039203D2025690A000A48656C0016
:101F44000A303030303030303030303030303030B3
:101F5400303030303030303030303030303030307D
:101F64003030000A313131313131313131313131B7
:101F7400000A323232323232323232323232323297
:101F8400323232323232323232323232000A424D5C
:101F940050323830204932432044656D6F000A5472
:101FA400776F6F6F6F6F6F6F6F6F000A5468726532
:101FB400656565656565656565656565000A424DC8
:101FC4005032383020636F6E6E656374696F6E20B3
:101FD4004F4B000A424D5032383020636F6E6E65AD
:101FE4006374696F6E206E6F74204F4B0074656D5F
:101FF40070203D2025640A207072657373203D2093
:1020040025660A20616C74203D2025660A00424D35
:1020140050323830206D6561737572656D656E740C
:10202400206E6F74204F4B0063686964203D202547
:062034002E32580A0000E4
:00000001FF
