S0150000647331386232305F75736172742E737265637D
S113000045C0000058C0000056C0000054C00000A5
S113001052C0000050C000004EC000004CC00000A0
S11300204AC0000048C0000046C0000044C00000B0
S113003042C0000040C000003EC000003CC00000C0
S11300403AC0000038C0000036C0000034C00000D0
S113005032C0000030C000002EC000002CC00000E0
S11300602AC0000028C0000026C0000024C00000F0
S113007022C0000020C000001EC000001CC0000000
S11300801AC0000018C0000016C0000011241FBED2
S1130090CFEFD0E1DEBFCDBF11E0A0E0B1E0E8E6F4
S11300A0F1E000E00BBF02C007900D92AA30B10747
S11300B0D9F72FD057C0A4CF80E881BB109290000D
S11300C093E399B998E19AB996E09093950082BB2D
S11300D02FEF89E698E1215080409040E1F700C07D
S11300E0000008955F9BFECF8CB190E008955D9B66
S11300F0FECF8CB90895CF93DF93EC0188818823D8
S113010029F02196F4DF89918111FCCFDF91CF9101
S11301100895CF93DF93CDB7DEB729970FB6F89440
S1130120DEBF0FBECDBFC8DF12BA89E0E0E0F1E068
S1130130DE01119601900D928A95E1F76894FF24EF
S1130140F7F8D0DF8C01C19711F4F2BA01C012BAEA
S11301508DE0CDDF8AE0CBDFCE010196CCDF802FAE
S10B0160C6DFEFCFF894FFCFD6
S10D01684F75747075743A2000009E
S9030000FC
