:1000000045C0000058C0000056C0000054C00000A9
:1000100052C0000050C000004EC000004CC00000A4
:100020004AC0000048C0000046C0000044C00000B4
:1000300042C0000040C000003EC000003CC00000C4
:100040003AC0000038C0000036C0000034C00000D4
:1000500032C0000030C000002EC000002CC00000E4
:100060002AC0000028C0000026C0000024C00000F4
:1000700022C0000020C000001EC000001CC0000004
:100080001AC0000018C0000016C0000011241FBED6
:10009000CFEFD0E1DEBFCDBF11E0A0E0B1E0ECE2F8
:1000A000F3E000E00BBF02C007900D92A632B1074B
:1000B000D9F702D039C1A4CF19D027D189E1B8D05E
:1000C000882319F081E31CD002C080E319D0D7D077
:1000D00060E280E091E0D9D02FEF84E39CE02150F2
:1000E00080409040E1F700C00000F2CF10929000F5
:1000F00083E389B988E18AB986E080939500089501
:100100005D9BFECF8CB9089587B3816187BB87B3B0
:100110008F7D87BB88B3816088BB88B38F7E88BBA7
:100120000895DF92EF92FF920F931F93CF93DF9387
:100130008B01C42F98B39E7F98BBF1D0D82E09C0F5
:1001400078018FEFE81AF80AF8018081E8D0CD2F06
:100150008701DFEFDC0FC111F3CF88B3816088BB6B
:100160008D2DDF91CF911F910F91FF90EF90DF9038
:10017000089598B39E7F98BB8F71D1D08FEFCFD069
:1001800098B3916098BB0895CF93DF93D62F98B31F
:100190009E7F98BB8F718062C2D0C82F8D2FBFD039
:1001A00088B3816088BB8C2FDF91CF9108958F71C8
:1001B0008062B7CF089598B39E7F98BBB0D098B3B4
:1001C000916098BB0895CF9388B38F7E88BBC4E6B7
:1001D0006CE080E0D9DF80E0CCDF8C3061F08FEF25
:1001E0008C0FCC2311F1EFECF7E03197F1F700C061
:1001F0000000C82FEDCF60E081E0C6DF60E082E064
:10020000C3DF63E083E0C0DF67E085E0BDDF66E277
:1002100086E0BADF6EE080E0B7DF80E0AADF91E041
:100220008E3009F090E0892F01C080E0CF910895D1
:10023000CF93DF93C82F68DF1AC0C5DF882359F03A
:100240008FE99FE00197F1F700C0000088B380615B
:1002500088BB81E011C086E453DF9FEF24E38CE08C
:10026000915020408040E1F700C00000CD2FDFEF2B
:10027000DC0FC111E2CF80E0DF91CF91089545E01E
:1002800060E271E080E193CF08951F93CF93DF93F5
:10029000EC01162F88B38F7E88BB80E06ADF682F61
:1002A0006C7F80E071DF81EE86DF8FE19EE4019755
:1002B000F1F700C00000412FBE0180EA32DF412F7C
:1002C000BE0180EA2EDF8FE19EE40197F1F700C0C6
:1002D000000080E04EDF682F626080E055DF88B369
:1002E000806188BB8FE19EE40197F1F700C00000B8
:1002F00088B38F7E88BB80E03CDF682F6D7F80E015
:1003000043DFDF91CF911F91089587B3876087BB4B
:1003100088B38F6088BB82E58DB91EB808958FB908
:0C032000779BFECF8FB10895F894FFCFBB
:10032C0000070908050702062C1A07090805070229
:10033C00062C02061A1516172C191A1B1C1D1E1F2B
:06034C005452534D540011
:00000001FF
