:10000000C6C00000E2C00000E0C00000DEC000008A
:10001000DCC00000DAC00000D8C00000D6C000007C
:10002000D4C00000D2C00000D0C00000CEC000008C
:10003000CCC00000CAC00000C8C00000C6C000009C
:10004000C4C00000C2C00000C0C00000BEC00000AC
:10005000BCC00000BAC00000B8C00000B6C00000BC
:10006000B4C00000B2C00000B0C00000AEC00000CC
:10007000ACC00000AAC00000A8C00000A6C00000DC
:10008000A4C00000A2C00000A0C000006E616E000D
:10009000696E660000407A10F35A00A0724E18098B
:1000A0000010A5D4E80000E87648170000E40B54DF
:1000B000020000CA9A3B000000E1F50500008096AE
:1000C0009800000040420F000000A08601000000E0
:1000D000102700000000E80300000000640000009A
:1000E00000000A00000000000100000000002C7663
:1000F000D888DC674F0823DFC1DFAE59E1B1B7967E
:10010000E5E3E453C63AE651997696E8E6C28426DA
:10011000EB898C9B62ED407C6FFCEFBC9C9F40F2B6
:10012000BAA56FA5F490055A2AF75C936B6CF96732
:100130006DC11BFCE0E40D47FEF520E6B500D0EDF7
:10014000902E0300943577050080841E080000205F
:100150004E0A000000C80C333333330F986E1283FD
:100160001141EF8D2114893BE65516CFFEE6DB18D1
:10017000D1844B381BF77C1D901DA4BBE424203296
:1001800084725E228100C9F124ECA1E53D2711248F
:100190001FBECFEFD0E1DEBFCDBF11E0A0E0B1E0E8
:1001A000E8E4F4E100E00BBF02C007900D92A8352F
:1001B000B107D9F721E0A8E5B1E001C01D92AF3544
:1001C000B207E1F764D10C94220A1ACFCF93DF93E0
:1001D0001F92CDB7DEB719829E012F5F3F4F41E0DE
:1001E00060E080915801FFD081E09981953E09F04F
:1001F00080E00F90DF91CF9108954BE061E3809113
:100200005801D2C0089548E06DE280915801CCC0F9
:10021000089580935801DADF882341F048E06CE2CA
:1002200080915801C1D0E9DFEEDF81E00895CF92DF
:10023000DF92EF92FF920F931F93CF93DF9300D043
:1002400000D000D0CDB7DEB76C017B018A019E01E2
:100250002F5F3F4F46E062E380915801C4D08A810E
:1002600090E0982F88272981822BF6019183808343
:100270008C8190E0982F88272B81822BF701918326
:1002800080838E8190E0982F88272D81822BF80122
:100290009183808326960FB6F894DEBF0FBECDBF44
:1002A000DF91CF911F910F91FF90EF90DF90CF9052
:1002B00008959C0140E050E060E072E18AE790E040
:1002C000E8D6BA01A9014051510961097109DB0160
:1002D000CA011AF40196A11DB11DB595A795979570
:1002E00087958093700010927100E4E7F0E08081C0
:1002F00084608083089584EA80937400E4E7F0E0EA
:1003000080818823ECF7089584E980937400E4E702
:10031000F0E0808184FDFDCF08958093730084E830
:1003200080937400E4E7F0E080818823ECF780910B
:100330007100887F883169F080917100887F8832F0
:1003400051F090917100987F81E0903429F080E025
:10035000089581E0089581E00895DC01662331F07D
:10036000E4E7F0E090819064908305C0E4E7F0E07A
:1003700090819F7B9083E4E7F0E090819068908388
:1003800090819923ECF790917100987F983529F02E
:1003900090917100987F903529F4809173008C932F
:1003A00081E0089580E008951F93CF93DF93182F85
:1003B000D62FC42FA0DF812F880FAFDF8D2FADDFA9
:1003C0008C2FABDF8FE19EE40197F1F700C00000B6
:1003D0009BDF8FED9EE20197F1F700C00000DF91F7
:1003E000CF911F910895FF920F931F93CF93DF93A7
:1003F000182FF62E042FE9017EDF110F812F8DDFDC
:100400008F2D8BDF78DF81E0810F87DF002369F09C
:10041000015010E00F5F1F4F0C0F1D1F61E0CE0158
:100420009CDF2196C017D107C9F7DF91CF911F91AB
:100430000F91FF900895CF93C82F8A3011F48DE06B
:10044000FADF8C2FECD080E090E0CF91089580EA25
:1004500096E82FDF83E5DDDE2FEF39E698E12150C6
:1004600030409040E1F700C00000813041F48EE060
:1004700091E09F938F9375D70F900F9008958BE124
:1004800091E09F938F936DD70F900F900895CF9326
:10049000DF9300D000D000D0CDB7DEB71A8219822A
:1004A0001C821B821E821D8280E895E29DD080E026
:1004B00091E090935C0180935B01C9DFAE014B5FDB
:1004C0005F4FBE016D5F7F4FCE010196B0DE698147
:1004D0007A81072E000C880B990B0CD122EC3BEF94
:1004E0004AE25DE393D1F62E072F182FE92E6B8198
:1004F0007C81072E000C880B990BFCD022EC3BEF83
:100500004AE25DE383D1D62EC72E782E692E6D8107
:100510007E81072E000C880B990BECD022EC3BEF70
:100520004AE25DE373D1562E472E382E292EEF92E4
:100530001F930F93FF928CE291E09F938F9311D7BB
:100540006F927F92CF92DF9285E391E09F938F939A
:1005500008D72F923F924F925F928EE391E09F9344
:100560008F93FFD62F2D302F412F5E2D6F2D702FA3
:10057000812F9E2D4BD14B015C012D2D3C2D472D04
:10058000562D6D2D7C2D872D962D40D19B01AC01D4
:10059000C501B40149D06B017C01252D342D432DBB
:1005A000522D652D742D832D922D30D19B01AC01E0
:1005B000C701B60139D091D19F938F937F936F93E9
:1005C00087E491E09F938F93CCD68FEF94E32CE058
:1005D000815090402040E1F700C000000FB6F89431
:1005E000DEBF0FBECDBF6ACF9C0140E050E060E2AD
:1005F00071EA87E090E04DD5BA01A9014150510957
:1006000061097109BB27A72F962F852F8093900032
:1006100049B988E18AB986E08093950008955D9B89
:10062000FECF8CB908955058BB27AA270ED0B4C06E
:10063000A5D030F0AAD020F031F49F3F11F41EF481
:100640009AC00EF4E095E7FB90C0E92FB6D080F396
:10065000BA17620773078407950718F071F49EF5BF
:10066000CEC00EF4E0950B2EBA2FA02D0B01B901D0
:1006700090010C01CA01A0011124FF27591B99F018
:10068000593F50F4503E68F11A16F040A22F232F24
:10069000342F4427585FF3CF469537952795A79574
:1006A000F0405395C9F77EF41F16BA0B620B730B1B
:1006B000840BBAF09150A1F0FF0FBB1F661F771F8C
:1006C000881FC2F70EC0BA0F621F731F841F48F441
:1006D000879577956795B795F7959E3F08F0B3CFC7
:1006E0009395880F08F09927EE0F979587950895B1
:1006F000E89409C097FB3EF49095809570956195BC
:100700007F4F8F4F9F4F9923A9F0F92F96E9BB2771
:100710009395F695879577956795B795F111F8CFED
:10072000FAF4BB0F11F460FF1BC06F5F7F4F8F4F58
:100730009F4F16C0882311F096E911C0772321F04E
:100740009EE8872F762F05C0662371F096E8862FE6
:1007500070E060E02AF09A95660F771F881FDAF73D
:10076000880F9695879597F9089597F99F6780E880
:1007700070E060E008959FEF80EC089500240A94F3
:100780001616170618060906089500240A9412166C
:100790001306140605060895092E0394000C11F49F
:1007A000882352F0BB0F40F4BF2B11F460FF04C04C
:1007B0006F5F7F4F8F4F9F4F089557FD9058440FA5
:1007C000551F59F05F3F71F04795880F97FB991FB0
:1007D00061F09F3F79F0879508951216130614066D
:1007E000551FF2CF4695F1DF08C0161617061806FA
:1007F000991FF1CF86957105610508940895E894D5
:10080000BB2766277727CB0197F908950BD0C4CF74
:10081000B5DF28F0BADF18F0952309F0A6CFABCFEB
:100820001124EECFCADFA0F3959FD1F3950F50E0CE
:10083000551F629FF001729FBB27F00DB11D639F92
:10084000AA27F00DB11DAA1F649F6627B00DA11D38
:10085000661F829F2227B00DA11D621F739FB00DDE
:10086000A11D621F839FA00D611D221F749F33274E
:10087000A00D611D231F849F600D211D822F762FE7
:100880006A2F11249F5750408AF0E1F088234AF0E4
:10089000EE0FFF1FBB1F661F771F881F9150504030
:1008A000A9F79E3F510570F060CFAACF5F3FECF3F0
:1008B000983EDCF3869577956795B795F795E7951C
:1008C0009F5FC1F7FE2B880F911D9695879597F92D
:1008D000089511F40EF44FCF3EC077DFD0F3992383
:1008E000D9F3CEF39F57550B87FF43D00024A0E6E2
:1008F00040EA900180585695979528F4805C660FE1
:10090000771F881F20F026173707480730F4621B2F
:10091000730B840B202931294A2BA6951794079431
:10092000202531254A2758F7660F771F881F20F0AA
:1009300026173707480730F4620B730B840B200D22
:10094000311D411DA09581F7B901842F9158880F61
:100950009695879508959F3F31F0915020F48795A3
:1009600077956795B795880F911D9695879597F917
:10097000089591505040660F771F881FD2F7089551
:100980002F923F924F925F926F927F928F929F929F
:10099000AF92BF92CF92DF92EF92FF920F931F938D
:1009A000CF93DF93CDB7DEB760970FB6F894DEBF75
:1009B0000FBECDBF7C011B016A01FC0117821682AC
:1009C000838181FF2AC39E012F5F3F4F3901F701C9
:1009D0009381F10193FD859193FF81911F018823FC
:1009E00009F417C3853239F493FD859193FF819102
:1009F0001F01853231F4B70190E077D456016501CB
:100A0000E6CF10E0512C912CFFE1F915D8F08B3294
:100A100079F038F4803279F08332A1F4F92DF06165
:100A20002EC08D3261F0803369F4292D21602DC0F4
:100A3000392D3260932E892D8460982E2AC0E92D9D
:100A4000E86015C097FC2DC020ED280F2A3088F4EF
:100A500096FE06C03AE0139F200D1124122F19C0F4
:100A60008AE0589E200D1124522EE92DE0629E2E20
:100A700010C08E3231F496FCCCC2F92DF0649F2E5A
:100A800008C08C3621F4292D2068922E02C08836A9
:100A900041F4F10193FD859193FF81911F01811133
:100AA000B3CF9BEB980F933020F4992D9061805E2B
:100AB00007C09BE9980F933008F059C1992D9F7E8C
:100AC00096FF16E09F73992E853619F49064992E3F
:100AD00008C0863621F4392F3068932E02C01111D8
:100AE000115097FE07C01C3350F444244394410E28
:100AF00027E00BC0183038F027E017E005C027E0EA
:100B00009CE3492E02C0212F412C560184E0A80EFF
:100B1000B11CF6016081718182819381042DA30152
:100B2000F6D26C01F981FC87F0FF02C0F3FF06C02A
:100B300091FC06C092FE06C000E205C00DE203C0B3
:100B40000BE201C000E08C858C7019F0011143C2EA
:100B500080C297FE10C04C0CFC85F4FF04C08A8153
:100B6000813309F44A94141474F528E0241578F5B7
:100B700088E0482E2CC096FC2AC0812F90E08C156E
:100B80009D059CF03CEFC3163FEFD30674F0892D12
:100B90008068982E0AC0E2E0F0E0EC0FFD1FE10F44
:100BA000F11D8081803319F411501111F4CF97FE9B
:100BB0000EC044244394410E812F90E0C816D906FC
:100BC0002CF41C1904C04424439401C010E097FE87
:100BD00006C01C141D0434F4C601019605C085E04E
:100BE00090E002C081E090E001110196112331F004
:100BF000212F30E02F5F3F4F820F931F252D30E0D4
:100C00008217930714F4581A01C0512C892D89704A
:100C100041F4552031F0B70180E290E066D35A9458
:100C2000F8CF002321F0B701802F90E05ED393FC32
:100C300008C0552031F0B70180E390E056D35A94B4
:100C4000F8CF97FE4AC04601D7FE02C0812C912CF6
:100C5000C60188199909F301E80FF91FFE87ED878E
:100C6000960124193109388B2F87012F10E0119537
:100C7000019511093FEF8316930621F4B7018EE227
:100C800090E033D3C814D9044CF08F859889881527
:100C9000990524F4ED85FE85818101C080E3F1E0B2
:100CA0008F1A91082D853E852F5F3F4F3E872D87F8
:100CB0008016910624F0B70190E017D3DBCFC8145B
:100CC000D90441F49A81963320F4953319F43C8584
:100CD00034FF81E3B70190E048C08A81813319F085
:100CE0009C859F7E9C87B70190E0FFD2111105C0C3
:100CF00094FC16C085E690E015C0B7018EE290E046
:100D0000F4D21E5F82E001E0080FF301E80FF11D4D
:100D10008081B70190E0E9D2802F0113F4CFE8CFB2
:100D200085E490E0B701E1D2D7FC06C0C114D1043C
:100D300041F4EC85E4FF05C0D194C194D1088DE263
:100D400001C08BE2B70190E0D0D280E32AE0C21666
:100D5000D1042CF08F5FFAE0CF1AD108F7CFB7019A
:100D600090E0C3D2B701C601C096BFD249C1833655
:100D700031F0833779F0833509F052C01FC0560136
:100D800032E0A30EB11CF6018081898301E010E0FE
:100D9000630111C05601F2E0AF0EB11CF601C08034
:100DA000D18096FE03C0612F70E002C06FEF7FEF2D
:100DB000C60190D28C01F92DFF7713C0560122E0B5
:100DC000A20EB11CF601C080D18096FE03C0612F37
:100DD00070E002C06FEF7FEFC60171D28C01F92D78
:100DE000F0689F2EF3FD18C0852D90E008171907B5
:100DF00098F4B70180E290E078D25A94F5CFF601EA
:100E000097FC859197FE81916F01B70190E06DD2BB
:100E100051105A94015011090115110581F7F0C0C4
:100E2000843611F0893659F5560197FE09C024E041
:100E3000A20EB11CF60160817181828193810AC08A
:100E4000F2E0AF0EB11CF60160817181072E000C3B
:100E5000880B990BF92DFF769F2E97FF09C090956F
:100E60008095709561957F4F8F4F9F4FF0689F2EB3
:100E70002AE030E0A30188D2C82EC6183EC0092D52
:100E8000853721F40F7E2AE030E01DC0097F8F36C0
:100E900091F018F4883559F0BCC0803719F08837C4
:100EA00011F0B7C0006104FF09C0046007C094FEE0
:100EB00008C0066006C028E030E005C020E130E050
:100EC00002C020E132E0560107FF09C084E0A80E0D
:100ED000B11CF601608171818281938108C0F2E0CA
:100EE000AF0EB11CF6016081718180E090E0A3013A
:100EF0004BD2C82EC6180F77902E96FE0BC0092D28
:100F00000E7FC11650F494FE0AC092FC08C0092D51
:100F10000E7E05C0DC2C092D03C0DC2C01C0D12EB7
:100F200004FF0DC0FE01EC0DF11D8081803311F432
:100F3000097E09C002FF06C0D394D39404C0802F59
:100F4000867809F0D39403FD10C000FF06C01C2D65
:100F5000D51478F4150D1D190CC0D51450F4B70133
:100F600080E290E0C2D1D394F8CFD51410F45D188C
:100F700001C0512C04FF0FC0B70180E390E0B5D150
:100F800002FF16C001FD03C088E790E002C088E5BB
:100F900090E0B7010CC0802F867851F001FF02C0AD
:100FA0008BE201C080E207FD8DE2B70190E09DD1A8
:100FB000C11630F4B70180E390E097D11150F8CF1B
:100FC000CA94F301EC0DF11D8081B70190E08DD141
:100FD000C110F6CF15C0F4E0F51550F584E0581AAD
:100FE00093FE1EC0011125C02C8523FF27C00CE8ED
:100FF00010E0392D3071932EF8018491811121C0B8
:10100000552009F4FCCCB70180E290E06ED15A94EF
:10101000F7CFF7018681978123C08FEF9FEF20C024
:10102000B70180E290E061D15A945110F9CFDACF44
:10103000512CB701802F90E058D1D6CF00E910E0B5
:10104000D8CF91108052B70190E04FD10F5F1F4F62
:10105000D3CF23E0251510F483E0C1CF512CC4CFAA
:1010600060960FB6F894DEBF0FBECDBFDF91CF9173
:101070001F910F91FF90EF90DF90CF90BF90AF90B6
:101080009F908F907F906F905F904F903F902F90A8
:101090000895052E97FB16F400940FD057FD05D048
:1010A00014D007FC02D046F408C050954095309506
:1010B00021953F4F4F4F5F4F0895909580957095C4
:1010C00061957F4F8F4F9F4F0895A1E21A2EAA1B63
:1010D000BB1BFD010DC0AA1FBB1FEE1FFF1FA217E8
:1010E000B307E407F50720F0A21BB30BE40BF50BE5
:1010F000661F771F881F991F1A9469F7609570956E
:10110000809590959B01AC01BD01CF0108952830D9
:1011100008F027E03327DA01990F311D87FD916030
:1011200000966105710539F432602E5F3D9330E31E
:101130002A95E1F708959F3F30F0803871056105E9
:1011400009F03C5F3C5F3D93913008F08068911D51
:10115000DF93CF931F930F93FF92EF92192F987FF6
:101160009695E92F96959695E90FFF27E251FF4F47
:1011700099273327EE24FF24A701E701059008945F
:10118000079428F4360FE71EF81E491F511D660FFD
:10119000771F881F991F0694A1F70590079428F4DC
:1011A000E70EF81E491F561FC11D770F881F991F94
:1011B000661F0694A1F70590079428F4F80E491FBE
:1011C000561FC71FD11D880F991F661F771F0694D2
:1011D000A1F70590079420F4490F561FC71FD81F89
:1011E000990F661F771F881F0694A9F784911095A1
:1011F000177041F0D695C79557954795F794E794A2
:101200001A95C1F7E4E9F0E06894159015913591CD
:101210006591959105907FE27395E118F10A430B72
:10122000560BC90BD009C0F7E10CF11E431F561F26
:10123000C91FD01D7EF4703311F48A95E6CFE8946F
:10124000015030F0080F0AF40027021708F4202F8D
:101250002395022F7A3328F079E37D932A95E9F7D5
:1012600010C07D932A9589F60694979567953795D2
:1012700017951794E118F10A430B560BC90BD009C7
:1012800098F023957E9173957A3308F070E37C9300
:101290002013B8F77E9170617D9330F0839571E3F0
:1012A0007D9370E32A95E1F71124EF90FF900F9161
:1012B0001F91CF91DF91992787FD90950895FC01AB
:1012C0000590615070400110D8F7809590958E0F71
:1012D0009F1F0895FC016150704001900110D8F7E4
:1012E000809590958E0F9F1F08950F931F93CF9316
:1012F000DF93FB01238121FD03C08FEF9FEF2CC003
:1013000022FF16C046815781248135814217530739
:1013100044F4A081B1819D012F5F3F4F3183208331
:101320008C93268137812F5F3F4F3783268314C0EC
:101330008B01EC01FB010084F185E02D0995892BDF
:10134000E1F6D80116968D919C9117970196179604
:101350009C938E931697CE01DF91CF911F910F91A1
:101360000895CF93DF93CDB7DEB7AE014B5F5F4FEC
:10137000FA0161917191AF0180915B0190915C01E3
:10138000FFDADF91CF910895FA01AA27283051F1B1
:10139000203181F1E8946F936E7F6E5F7F4F8F4FA6
:1013A0009F4FAF4FB1E03ED0B4E03CD0670F781F05
:1013B000891F9A1FA11D680F791F8A1F911DA11DEA
:1013C0006A0F711D811D911DA11D20D009F4689423
:1013D0003F912AE0269F11243019305D3193DEF6CB
:1013E000CF010895462F4770405D4193B3E00FD081
:1013F000C9F7F6CF462F4F70405D4A3318F0495D6C
:1014000031FD4052419302D0A9F7EACFB4E0A6954E
:101410009795879577956795BA95C9F70097610570
:10142000710508959B01AC010A2E069457954795C6
:1014300037952795BA95C9F7620F731F841F951FBB
:08144000A01D0895F894FFCFF0
:1014480000000002000000001B02000000004144F0
:10145800584C20494E4954204F4B004144584C2089
:10146800494E4954204E4F54204F4B0078203D2080
:1014780025660A200079203D2025660A20007A206A
:101488003D2025660A20006D6F64756C655F6720D6
:081498003D2025660A2000003A
:00000001FF
