:1000000086C00000A2C00000A0C000009EC000008A
:100010009CC000009AC0000098C0000096C000007C
:1000200094C0000092C0000090C000008EC000008C
:100030008CC000008AC0000088C0000086C000009C
:1000400084C0000082C0000080C000007EC00000AC
:100050007CC000007AC0000078C0000076C00000BC
:1000600074C0000072C0000070C000006EC00000CC
:100070006CC000006AC0000068C0000066C00000DC
:1000800064C0000062C0000060C000000763423628
:10009000B79BD8A71A39685618AEBAAB558C1D3C19
:1000A000B7CC5763BD6DEDFD753EF6177231BF00DD
:1000B0000000803F08000000BE922449123EABAA17
:1000C000AA2ABECDCCCC4C3E00000080BEABAAAA72
:1000D000AA3E00000000BF000000803F00000000BA
:1000E00000084178D3BB4387D1133D190E3CC3BDF3
:1000F0004282AD2B3E68EC8276BED98FE1A93E4CA0
:1001000080EFFFBE01C4FF7F3F000000000011240C
:100110001FBECFEFD0E1DEBFCDBF11E0A0E0B1E068
:10012000EEE1F9E100E00BBF02C007900D92A630AE
:10013000B107D9F721E0A6E0B1E001C01D92A432D9
:10014000B207E1F7ACD40C948D0C5ACFCF93DF9368
:100150001F92CDB7DEB719829E012F5F3F4F41E05E
:1001600060E0809106010CD681E09981953E09F00E
:1001700080E00F90DF91CF9108954BE061E3809193
:100180000601DFC5089548E06DE280910601D9C5FA
:10019000089580930601DADF882341F04AE06CE29B
:1001A00080910601CED5E9DFEEDF81E00895CF92A0
:1001B000DF92EF92FF920F931F93CF93DF9300D0C4
:1001C00000D000D0CDB7DEB76C017B018A019E0163
:1001D0002F5F3F4F46E062E380910601D1D58A81CF
:1001E00090E0982F88272981822BF60191838083C4
:1001F0008C8190E0982F88272B81822BF7019183A7
:1002000080838E8190E0982F88272D81822BF801A2
:100210009183808326960FB6F894DEBF0FBECDBFC4
:10022000DF91CF911F910F91FF90EF90DF90CF90D2
:100230000895EF92FF920F931F93CF93DF937C016A
:100240008B01EA01B4DFF70160817181072E000C98
:10025000880B990B0E94C50920E030E045E750E487
:100260000E94750A0E949209F70171836083F80168
:1002700060817181072E000C880B990B0E94C509C3
:1002800020E030E045E750E40E94750A0E949209A0
:10029000F8017183608368817981072E000C880BD7
:1002A000990B0E94C50920E030E045E750E40E9428
:1002B000750A0E94920979836883DF91CF911F911B
:1002C0000F91FF90EF900895462F682F80911101B4
:1002D00038C50895CF93DF931F92CDB7DEB79E0147
:1002E0002F5F3F4F41E0682F8091110149D58981EF
:1002F0000F90DF91CF910895CF93DF9300D0CDB7CA
:10030000DEB79E012F5F3F4F42E0682F80911101C1
:1003100037D5898190E0982F88272A81822B0F90EA
:100320000F90DF91CF910895E7DF982789279827CD
:100330000895CF93DF9300D01F92CDB7DEB79E0113
:100340002F5F3F4F43E0682F8091110119D56981DC
:10035000862F90E0A0E0B0E0BA2FA92F982F882731
:100360002A81822BBA2FA92F982F88272B81BC0195
:10037000CD01622B0F900F900F90DF91CF910895D8
:1003800088E8D2DF90930A01809309018AE8CCDFE4
:1003900090930C0180930B018CE8C6DF90931D01B4
:1003A00080931C018EE8C0DF9093150180931401A7
:1003B00080E9BADF90930E0180930D0182E9B4DFEA
:1003C000909317018093160184E9AEDF909310019A
:1003D00080930F0186E9A8DF9093130180931201A7
:1003E00088E9A2DF90931F0180931E018AE99CDFB8
:1003F00090930801809307018CE996DF909319018F
:10040000809318018EE990DF90931B0180931A016D
:1004100008958093110180ED5DDF883531F4B0DF00
:1004200068E685EF51DF81E0089580E008958F92BE
:100430009F92AF92BF92CF92DF92EF92FF920F9373
:100440001F938AEF76DF0091090110910A0120E0E5
:1004500030E0C72ED82EE92EFF24E7FCFA94C01A0C
:10046000D10AE20AF30ADC01CB01689416F8B595CB
:10047000A795979587951694D1F7000F111F221F06
:10048000331F4C015D01801A910AA20AB30AA5012B
:100490009401A0910B01B0910C010E94780C4B01CA
:1004A0005C01072E7BE0B594A794979487947A9586
:1004B000D1F7702DA7019601C701B6010E943D0C2E
:1004C0009B01AC01012E1CE055954795379527956A
:1004D0001A95D1F7102DA0911C01B0911D010E9419
:1004E000780CDC01CB01072E7EE0B595A79597959A
:1004F00087957A95D1F7702D880D991DAA1DBB1D82
:100500008093200190932101A0932201B0932301B5
:100510008C019D01000F111F221F331F000F111F9F
:10052000221F331F800F911FA21FB31F80589F4FA0
:10053000AF4FBF4F692F7A2F8B2F992787FD9A9541
:100540001F910F91FF90EF90DF90CF90BF90AF90F1
:100550009F908F9008954F925F926F927F928F92AB
:100560009F92AF92BF92CF92DF92EF92FF92CF9382
:10057000DF9300D000D000D0CDB7DEB77C017E8302
:100580006D8355DFF701608371838283938387EFE7
:10059000D0DE2B013C0160912001709121018091FE
:1005A000220190912301F1D620E030E040E05FE3AA
:1005B0009CD720E030E04AE757E4E3D56B017C01AB
:1005C0006091160170911701072E000C880B990B92
:1005D000DCD6A701960189D7A701960186D720E02E
:1005E00030E040E056E381D74B015C0160910D01A2
:1005F00070910E01072E000C880B990BC6D6A7012F
:10060000960173D79B01AC01C501B401BBD520E0B5
:1006100030E040E056E369D720E030E040E058E3C6
:1006200064D720E030E040E85FE3ACD54B015C01EB
:10063000609114017091150180E090E0A4D6A501AD
:10064000940153D74B015C0120E030E0A901FED5B5
:10065000811107C0ED81FE81108211821282138206
:10066000C6C060911E0170911F01072E000C880BFF
:10067000990B8BD669837A838B839C83A701960120
:10068000C701B60132D79B01AC0169817A818B81A8
:100690009C812BD720E030E040E058E326D76983E7
:1006A0007A838B839C836091120170911301072ED2
:1006B000000C880B990B69D6A701960116D79B01F0
:1006C000AC0160D529813A814B815C815BD520E00A
:1006D00030E040E85EE309D76B017C01C301B20161
:1006E000689413F895958795779567951694D1F743
:1006F0004CD69B01AC0160E070E080E899E441D504
:100700002B013C0160910F0170911001072E000C2C
:10071000880B990B3AD620E030E040E857E4E5D664
:10072000A70196012FD520E030E040E859E3DDD65F
:100730009B01AC01C301B20124D520E030E543ECBC
:1007400055E4D3D6A501940185D56B017C01ED81DB
:10075000FE81608371838283938360911A0170911B
:100760001B01072E000C880B990B0FD6A7019601D1
:10077000BCD6A7019601B9D620E030E040E050E3B6
:10078000B4D64B015C016091180170911901072EDC
:10079000000C880B990BF9D5A7019601A6D620E08D
:1007A00030E040E058E3A1D69B01AC01C501B401A3
:1007B000E9D44B015C016091070170910801072E9B
:1007C000000C880B990BE1D59B01AC01C501B4016C
:1007D000D9D420E030E040E85DE387D6A701960158
:1007E000D1D4ED81FE8160837183828393832696C9
:1007F0000FB6F894DEBF0FBECDBFDF91CF91FF9053
:10080000EF90DF90CF90BF90AF909F908F907F90B0
:100810006F905F904F90089520E836EE45EC57E4D6
:10082000FC01608171818281938114D522E63BEDC8
:1008300042E45EE3BDD69B01AC0160E070E080E87D
:100840009FE39FD420E03AE24DE257E44EC6EF9298
:10085000FF920F931F93CF93DF937C01EB018A01EB
:1008600065E584EF31DD2FEF82E191E0215080409A
:100870009040E1F700C00000BE01C7016CDECE0170
:10088000CBDFF801608371838283938381E0DF9102
:10089000CF911F910F91FF90EF9008956623B9F0CB
:1008A000FC01615070E06F5F7F4F680F791F80E03F
:1008B0004CE8219198E0382F3227869530FD842727
:1008C00026959150C1F7E617F70799F7089580E04C
:1008D00008957F928F929F92AF92BF92CF92DF92B4
:1008E000EF92FF920F931F93CF93DF937C016B01E5
:1008F0005A01722E4801012B19F40CECABD30FC036
:1009000005E5A8D3E40188E0880E911C0991272D04
:10091000A501B601C7019ED3C815D905B9F7DF9166
:10092000CF911F910F91FF90EF90DF90CF90BF90EC
:10093000AF909F908F907F900895BF92CF92DF925B
:10094000EF92FF920F931F93CF93DF93EC017B0104
:100950006A01B22E17D3813061F02B2DA601B701A9
:10096000CE01B7DF04E42B2DA601B701CE0172D36F
:1009700080E0DF91CF911F910F91FF90EF90DF907A
:10098000CF90BF9008957F928F929F92AF92BF9227
:10099000CF92DF92EF92FF920F931F93CF93DF934B
:1009A0006C015B014A01722EEDD28130A9F1272D35
:1009B000A401B501C6018DDF0EEB272DA401B50101
:1009C000C60148D3E7018701075F1F4F272DA40108
:1009D000B501C60196D38993C017D107B9F7F701BE
:1009E00090818181892B9281892B9381892B94819C
:1009F000892B9581892B9681892B9781892B49F0A9
:100A000068E0C7014BDFF7019085891304C080E0DF
:100A100003C083E001C082E0DF91CF911F910F916D
:100A2000FF90EF90DF90CF90BF90AF909F908F900E
:100A30007F900895CF92DF92EF92FF920F931F93D2
:100A4000CF93DF93CDB7DEB729970FB6F894DEBF0B
:100A50000FBECDBF6701FE0131967F0194DF882371
:100A600021F0F601118210820BC08A8190E0982F4C
:100A700088272981820F911DF6019183808380E070
:100A800029960FB6F894DEBF0FBECDBFDF91CF9190
:100A90001F910F91FF90EF90DF90CF900895CF932B
:100AA000DF93CDB7DEB7E9970FB6F894DEBF0FBE80
:100AB000CDBF58D320EA36E841E050E060E072E173
:100AC0008AE790E0D1D087E7A4DC8DE162DBBED07D
:100AD00089E1F7D12FEF84E39CE0215080409040E2
:100AE000E1F700C000000ED2FE01369680E2DF0181
:100AF0001D928A95E9F76F018E010F5F1F4FB0D0ED
:100B0000F80181938F01EC15FD05C9F700E010E0B5
:100B100020E846E350E067E370E088E390E00DDF13
:100B2000FFEF20E782E0F15020408040E1F700C075
:100B30000000DE019C967D0120E846E350E067E37B
:100B400070E088E390E076DF811113C06CA57DA58D
:100B5000072E000C880B990B18D420E030E048ECED
:100B600050E4C3D4DFD364587A4E7DA76CA77E834C
:100B70006F83AE014A5C5F4FBE016E5C7F4FCE015A
:100B80008E9665DE813051F520E030E048EC52E48D
:100B90006AA97BA98CA99DA9A8D4C4D3162F072F15
:100BA000F82E20E030E040E251E46EA97FA988AD44
:100BB00099AD9BD4B7D38EA59FA5A8A9B9A98458F0
:100BC0009A4EAF4FBF4F8EA79FA7A8ABB9AB9887E0
:100BD0008987FA860B871C877D876E87AE01465D05
:100BE0005F4FBE01685D7F4FCE01869622DB4EA12E
:100BF0005FA1405F584D5FA34EA328A539A5205F94
:100C0000384D39A728A78AA59BA5805F984D9BA73B
:100C10008AA7588B498B3A8B2B8B9C8B8D8B898128
:100C20008E8B8A818F8B8B81888F8C81898F8D8130
:100C30008A8F60E2C6016CD1BFEFE0E7F2E0B1500D
:100C4000E040F040E1F700C0000056CF1092900065
:100C500083E389B988E18AB986E080939500089595
:100C60005F9BFECF8CB1089517D6DA01C90140977A
:100C7000A109B109B695A7959795879580937000BE
:100C800010927100E4E7F0E0808184608083089531
:100C900084EA80937400E4E7F0E080818823ECF735
:100CA000089584E980937400E4E7F0E0808184FD96
:100CB000FDCF08958093730084E880937400E4E787
:100CC000F0E080818823ECF780917100887F883183
:100CD00069F080917100887F883251F090917100A5
:100CE000987F81E0903429F080E0089581E00895B4
:100CF00081E00895DC01662331F0E4E7F0E09081C3
:100D00009064908305C0E4E7F0E090819F7B90833E
:100D1000E4E7F0E090819068908390819923ECF76C
:100D200090917100987F983529F090917100987F8B
:100D3000903529F4809173008C9381E0089580E0D0
:100D400008951F93CF93DF93182FD62FC42FA0DFC2
:100D5000812F880FAFDF8D2FADDF8C2FABDF8FE1C1
:100D60009EE40197F1F700C000009BDF8FED9EE24B
:100D70000197F1F700C00000DF91CF911F91089516
:100D8000FF920F931F93CF93DF93182FF62E042F0C
:100D9000E9017EDF110F812F8DDF8F2D8BDF78DF53
:100DA00081E0810F87DF002369F0015010E00F5FC1
:100DB0001F4F0C0F1D1F61E0CE019CDF2196C01755
:100DC000D107C9F7DF91CF911F910F91FF9008953F
:100DD00087B3816187BBBD98C09AC4980895DF929C
:100DE000EF92FF920F931F93CF93DF937B01C42F5A
:100DF000C098C2D1D82E8FEF8C0FCC2361F0E701C1
:100E0000082F10E00F5F1F4F0E0D1F1D8991B4D1E9
:100E1000C017D107D9F7C09A8D2DDF91CF911F91BF
:100E20000F91FF90EF90DF900895C0988F71A4D13B
:100E30008FEFA2D1C09A0895CF93DF93D62FC09899
:100E40008F71806299D1C82F8D2F96D1C09A8C2F27
:100E5000DF91CF9108958F718062C1CF0895C098BE
:100E60008BD1C09A0895CF93C498C5E66CE080E01A
:100E7000E3DF80E0DADF8C3049F0C150F9F08FEC2D
:100E800097E00197F1F700C00000F0CF60E081E04B
:100E9000D3DF60E082E0D0DF63E083E0CDDF67E0B6
:100EA00085E0CADF66E286E0C7DF6EE080E0C4DF8F
:100EB00080E0BBDFC1E08E3009F0C0E08C2FCF9125
:100EC0000895CF93C82F84DFCC23C1F0CCDF8823D3
:100ED00049F08FE99FE00197F1F700C00000C49A44
:100EE000C1E00DC09FEF24E38CE091502040804092
:100EF000E1F700C00000C15049F701C0C0E08C2FED
:100F0000CF91089545E060E071E080E1A4CF0895BD
:100F10001F93CF93DF93EC01162FC49880E085DFF9
:100F2000682F6C7F80E088DF81EE99DF8FE19EE49F
:100F30000197F1F700C00000412FBE0180EA4FDFAA
:100F4000412FBE0180EA4BDF8FE19EE40197F1F76C
:100F500000C0000080E069DF682F626080E06CDF25
:100F6000C49A8FE19EE40197F1F700C00000C49895
:100F700080E05BDF682F6D7F80E05EDFDF91CF91E7
:100F80001F910895CF93DF93DC01FB013FB78C9154
:100F9000822B8C938081822B80839C91822F8095E1
:100FA00098239C93CFEAD4E02197F1F700C000008A
:100FB000908189238083DAEBDA95F1F700C0EA01AA
:100FC0008881CFE8D1E02197F1F700C000009C9123
:100FD000922B9C939081922B9083EFEAF4E03197CF
:100FE000F1F700C000003FBF282381E009F480E052
:100FF000DF91CF9108950F93FC019FB78081822BE1
:101000008083DB018C91822B8C938081322F3095F1
:1010100083238083002361F0B5E1BA95F1F70000E6
:101020008081282B208385ED8A95F1F700000BC085
:10103000A5EDAA95F1F700008081282B2083B5E06B
:10104000BA95F1F700009FBF81E0011101C080E077
:101050000F9108957F928F929F92AF92BF92CF92FD
:10106000DF92EF92FF920F931F93CF93DF934C0188
:101070005B016A01122FD02F7FB66894EE24E3F84B
:10108000F12CC1E00D2F0C23212FA601B501C401C5
:10109000B2DFCC0F81E0E81AF108A1F77FBEDF9143
:1010A000CF911F910F91FF90EF90DF90CF90BF9065
:1010B000AF909F908F907F900895DC01FB013FB728
:1010C0008C91822B8C938081822B80838C91922FA8
:1010D000909589238C9385E08A95F1F700008081B3
:1010E000982390839DE09A95F1F70000FA018081A2
:1010F000F0EAFA95F1F73FBF282381E009F480E098
:1011000008958F929F92AF92BF92CF92DF92EF920B
:10111000FF920F931F93CF93DF935C016B017A01D2
:10112000922E8FB608E010E0C1E0D0E0292DA70193
:10113000B601C501C2DF8C9FC0011124D82BCC0F92
:101140000150110999F78FBE8D2FDF91CF911F911B
:101150000F91FF90EF90DF90CF90BF90AF909F9056
:101160008F90089587B3876087BB88B38F6088BBF3
:1011700082E58DB91EB808958FB9779BFECF8FB1E8
:1011800008955058BB27AA270ED075C166D130F0FC
:101190006BD120F031F49F3F11F41EF45BC10EF4CB
:1011A000E095E7FB51C1E92F77D180F3BA176207C9
:1011B00073078407950718F071F49EF58FC10EF43C
:1011C000E0950B2EBA2FA02D0B01B90190010C0157
:1011D000CA01A0011124FF27591B99F0593F50F46F
:1011E000503E68F11A16F040A22F232F342F4427C7
:1011F000585FF3CF469537952795A795F0405395BF
:10120000C9F77EF41F16BA0B620B730B840BBAF08E
:101210009150A1F0FF0FBB1F661F771F881FC2F7F9
:101220000EC0BA0F621F731F841F48F4879577950D
:101230006795B795F7959E3F08F0B3CF9395880FC4
:1012400008F09927EE0F979587950895D9D008F45F
:1012500081E008950CD00FC107D140F0FED030F0EE
:1012600021F45F3F19F0F0C0511139C1F3C014D11E
:1012700098F39923C9F35523B1F3951B550BBB275D
:10128000AA2762177307840738F09F5F5F4F220F0A
:10129000331F441FAA1FA9F333D00E2E3AF0E0E803
:1012A00030D091505040E695001CCAF729D0FE2F4F
:1012B00027D0660F771F881FBB1F261737074807E1
:1012C000AB07B0E809F0BB0B802DBF01FF27935897
:1012D0005F4F2AF09E3F510568F0B6C000C15F3FE6
:1012E000ECF3983EDCF3869577956795B795F7957F
:1012F0009F5FC9F7880F911D9695879597F9089577
:10130000E1E0660F771F881FBB1F62177307840712
:10131000BA0720F0621B730B840BBA0BEE1F88F721
:10132000E095089504D06894B111D9C00895BCD057
:1013300088F09F5790F0B92F9927B751A0F0D1F0BE
:10134000660F771F881F991F1AF0BA95C9F712C048
:10135000B13081F0C3D0B1E00895C0C0672F782FBD
:101360008827B85F39F0B93FCCF3869577956795B4
:10137000B395D9F73EF490958095709561957F4F20
:101380008F4F9F4F0895E89409C097FB3EF49095C6
:101390008095709561957F4F8F4F9F4F9923A9F04E
:1013A000F92F96E9BB279395F695879577956795DD
:1013B000B795F111F8CFFAF4BB0F11F460FF1BC021
:1013C0006F5F7F4F8F4F9F4F16C0882311F096E9B4
:1013D00011C0772321F09EE8872F762F05C0662362
:1013E00071F096E8862F70E060E02AF09A95660F1B
:1013F000771F881FDAF7880F9695879597F90895D4
:10140000990F0008550FAA0BE0E8FEEF1616170615
:10141000E807F907C0F012161306E407F50798F07D
:10142000621B730B840B950B39F40A2661F0232B96
:10143000242B252B21F408950A2609F4A140A69512
:101440008FEF811D811D089597F99F6780E870E0F7
:1014500060E008959FEF80EC089500240A9416162A
:10146000170618060906089500240A941216130692
:10147000140605060895092E0394000C11F4882320
:1014800052F0BB0F40F4BF2B11F460FF04C06F5F3C
:101490007F4F8F4F9F4F089557FD9058440F551F12
:1014A00059F05F3F71F04795880F97FB991F61F0E6
:1014B0009F3F79F087950895121613061406551F5D
:1014C000F2CF4695F1DF08C0161617061806991FC9
:1014D000F1CF86957105610508940895E894BB27BE
:1014E00066277727CB0197F908950BD0C4CFB5DFD6
:1014F00028F0BADF18F0952309F0A6CFABCF11245E
:10150000EECFCADFA0F3959FD1F3950F50E0551FA2
:10151000629FF001729FBB27F00DB11D639FAA2748
:10152000F00DB11DAA1F649F6627B00DA11D661F97
:10153000829F2227B00DA11D621F739FB00DA11DB8
:10154000621F839FA00D611D221F749F3327A00D72
:10155000611D231F849F600D211D822F762F6A2F0E
:1015600011249F5750408AF0E1F088234AF0EE0F93
:10157000FF1FBB1F661F771F881F91505040A9F7A0
:101580009E3F510570F060CFAACF5F3FECF3983ECD
:10159000DCF3869577956795B795F795E7959F5F07
:1015A000C1F7FE2B880F911D9695879597F90895A1
:1015B000FA01EE0FFF1F30962105310599F16115F3
:1015C000710561F48038BFE39B0749F16894903856
:1015D000810561F08038BFEF9B0741F0992342F508
:1015E000FF3FE1053105210511F1E8940894E795E5
:1015F000D901AA2329F4AB2FBE2FF85FD0F310C076
:10160000FF5F70F4A695E0F7F73950F019F0FF3A54
:1016100038F49F779F930CD00F9007FC9058089553
:101620003EF018CF60E070E080E89FE308954FE758
:101630009F775F934F933F932F939ED02F913F912E
:101640004F915F9152DF05C019F40EF0FDCE46CFE9
:1016500001CF2ADFC8F39638C0F707F80F92E89455
:101660002BE33AEA48EB5FE74EDF0F920F920F92BF
:101670004DB75EB70F92C0D0ECE8F0E016D04F91B6
:101680005F91EF91FF91E595EE1FFF1F49F0FE5727
:10169000E0684427EE0F441FFA95E1F74195550B9A
:1016A00032D00F9007FE26C00895DF93CF931F938B
:1016B0000F93FF92EF92DF927B018C01689405C03B
:1016C000DA2EEF011EDFFE01E894A59125913591F8
:1016D00045915591AEF3EF0166DDFE019701A8013A
:1016E000DA9479F7DF90EF90FF900F911F91CF91EF
:1016F000DF9108959B01AC0160E070E080E89FE31A
:10170000A9CDA2CEACC0D0DEE8F39923D9F3940FD3
:10171000511DBBF39150504094F059F0882332F0A2
:10172000660F771F881F91505040C1F79E3F5105AB
:1017300044F7880F911D9695879597F908955F3F17
:10174000ACF0983E9CF0BB27869577956795B7954A
:1017500008F4B1609395C1F7BB0F58F711F460FF1F
:10176000E8CF6F5F7F4F8F4F9F4FE3CFB8CE0EF024
:1017700076C070CE689468CE97DEC8F39923D1F313
:10178000C6F3DF93CF931F930F93FF92C92FDD27EB
:1017900088232AF02197660F771F881FDAF720E049
:1017A00030E040E85FEB9FE3883920F0803E30F086
:1017B00021968F77E7DCE4EBF0E003C0E3DCE1EEB9
:1017C000F0E073DF8B01BE01EC01FB2E6F57710956
:1017D0007595771F880B990BD8DD28E132E741E337
:1017E0005FE38FDEAF2D9801AE01FF900F911F9147
:1017F000CF91DF91D8DC3FCEFA01DC01AA0FBB1FED
:101800009B01AC01BF5728F4222733274427507887
:101810001FC0B75188F4AB2F002446953795279504
:10182000011CA395D2F3002069F0220F331F441F3F
:10183000B395DAF30DD0A5CC61307105A0E88A0725
:10184000B94630F49B01AC0166277727882790784A
:10185000309621F0208331834283538308959F3F44
:1018600031F0915020F4879577956795B795880F5B
:10187000911D9695879597F90895DB018F939F9316
:101880002DD0BF91AF91A29F800D911DA39F900D70
:10189000B29F900D11240895A1E21A2EAA1BBB1B22
:1018A000FD010DC0AA1FBB1FEE1FFF1FA217B3072C
:1018B000E407F50720F0A21BB30BE40BF50B661F42
:1018C000771F881F991F1A9469F760957095809506
:1018D00090959B01AC01BD01CF0108950FD0A59F4C
:1018E000900DB49F900DA49F800D911D112408951B
:1018F000B7FFF4CFF3DF821B930B0895A29FB001D3
:10190000B39FC001A39F700D811D1124911DB29F33
:0E191000700D811D1124911D0895F894FFCFD4
:06191E005452534D540029
:00000001FF
