S01700004763634170706C69636174696F6E312E737265635B
S113000086C00000A2C00000A0C000009EC0000086
S11300109CC000009AC0000098C0000096C0000078
S113002094C0000092C0000090C000008EC0000088
S11300308CC000008AC0000088C0000086C0000098
S113004084C0000082C0000080C000007EC00000A8
S11300507CC000007AC0000078C0000076C00000B8
S113006074C0000072C0000070C000006EC00000C8
S11300706CC000006AC0000068C0000066C00000D8
S113008064C0000062C0000060C000000763423624
S1130090B79BD8A71A39685618AEBAAB558C1D3C15
S11300A0B7CC5763BD6DEDFD753EF6177231BF00D9
S11300B00000803F08000000BE922449123EABAA13
S11300C0AA2ABECDCCCC4C3E00000080BEABAAAA6E
S11300D0AA3E00000000BF000000803F00000000B6
S11300E000084178D3BB4387D1133D190E3CC3BDEF
S11300F04282AD2B3E68EC8276BED98FE1A93E4C9C
S113010080EFFFBE01C4FF7F3F0000000000112408
S11301101FBECFEFD0E1DEBFCDBF11E0A0E0B1E064
S1130120E2E3F9E100E00BBF02C007900D92A834AE
S1130130B107D9F721E0A8E4B1E001C01D92A636C9
S1130140B207E1F777D40C94970C5ACF1092710050
S1130150BC0180E090E054D69B01AC0160E070E00B
S11301608AE794E4B4D520D6603170F070E0605131
S11301707109072E000C880B990B44D620E030E05F
S113018040E05EE3EFD610D66093700085B38063E1
S113019085BB089584EA80937400089584E980936C
S11301A0740080E002C000008F5F9091740094FF9F
S11301B002C08A35C0F38A3518F0000084E6089539
S11301C080E008958093730084E880937400089518
S11301D084EC80937400089584E8809374000895F7
S11301E080E002C000008F5F90917400992314F0A6
S11301F08A35C0F38A3518F0000084E6089580E05B
S1130200089580917300089520917100287F30E053
S113021090E02817390711F480E008958AE00895E2
S1130220EF92FF920F931F93CF93DF93182FEB015D
S1130230B1DFD6DF8883811103C088E0E5DF8883DE
S11302408881811104C08EEEBDDFCADF8883888176
S1130250811103C088E1D8DF88838881811104C0BB
S1130260812FB0DFBDDF88838881811103C088E2DC
S1130270CBDF88838881811103C08CDFB1DF888361
S11302808881811103C080E1BFDF88838881811167
S113029004C08FEE97DFA4DF88838881811103C0B7
S11302A080E4B2DF88838881811103C091DF98DF05
S11302B088838881811106C0A4DFE82EF12C90DFA9
S11302C0888302C0E12CF12C8881811103C080E570
S11302D09BDF88838881811103C07EDF81DF88836F
S11302E08881811106C08DDF082F10E079DF8883B3
S11302F002C000E010E08881811103C088E584DF3A
S113030088838881811102C049DF8883902F8827E0
S11303108E0D9F1DDF91CF911F910F91FF90EF9054
S113032008954F925F926F927F928F929F92AF92B5
S1130330BF92CF92DF92EF92FF92CF93DF93F82E8A
S1130340EB0128DF4DDF8883811103C088E05CDF87
S113035088838881811104C08EEE34DF41DF888375
S11303608881811103C088E14FDF888388818111EE
S113037004C08F2D27DF34DF88838881811103C077
S113038088E242DF88838881811103C003DF28DF8C
S113039088838881811103C080E136DF8883888166
S11303A0811104C08FEE0EDF1BDF888388818111E9
S11303B003C080E429DF88838881811103C008DFBA
S11303C00FDF88838881811108C01BDF882E912C60
S11303D0A12CB12C05DF888303C0812C912C5401FE
S11303E08881811103C080E50FDF888388818111B2
S11303F003C0F2DEF5DE88838881811108C001DF45
S1130400C82ED12CE12CF12CEBDE888303C0C12C47
S1130410D12C76018881811103C0DEDEE1DE888380
S11304208881811108C0EDDE482E512C612C712C7D
S1130430D7DE888303C0412C512C3201888181117D
S113044003C088E5E1DE88838881811102C0A6DECD
S11304508883D40199278827FE2CED2CDC2CCC240E
S11304608C0D9D1DAE1DBF1D840D951DA61DB71DB4
S1130470BC01CD01689413F8969587957795679597
S11304801694D1F7DF91CF91FF90EF90DF90CF904A
S1130490BF90AF909F908F907F906F905F904F90A0
S11304A008950F931F93CF93DF93082F162FEA011C
S11304B071DE96DE8883811103C088E0A5DE88831F
S11304C08881811104C08EEE7DDE8ADE8883888176
S11304D0811103C088E198DE88838881811104C07A
S11304E0802F70DE7DDE88838881811103C088E2DD
S11304F08BDE88838881811104C0812F63DE70DEE6
S113050088838881811103C088E27EDE88838881A4
S1130510811102C043DE8883DF91CF911F910F9137
S11305200895FC012081211104C0BC018AEFF9CE99
S1130530089560E070E0CB010895FC012081211151
S113054004C0BC0187EFEDCE089560E070E0CB01FC
S113055008954F925F926F927F928F929F92AF9283
S1130560BF92CF92DF92EF92FF920F931F93CF939C
S1130570DF9300D000D000D0CDB7DEB79E838D834B
S11305808B015A01CA01CDDF6B017C01C501D5DFA6
S113059069837A838B839C83C701B60133D44B016F
S11305A05C0120E030E040E858E3DCD42B013C015E
S11305B060914A0170914B0180E090E021D46B017D
S11305C07C0120E030E040E85AE3CCD49B01AC014C
S11305D0C301B20113D32B013C0160914C01709112
S11305E04D01072E000C880B990B0CD49B01AC0118
S11305F0C301B201B7D42B013C0120E030E040E05C
S113060057E3C501B401AED44B015C0120E030E0F6
S113061040E059E3C701B601A5D49B01AC01C50173
S1130620B401ECD29B01AC019DD46B017C016091BF
S11306305C0170915D01072E000C880B990BE2D3CD
S11306409B01AC01C701B6018DD49B01AC01C30170
S1130650B201D5D26B017C0120E030E040E251E4EC
S113066081D420E030E040EA55E431D398D3ED81E1
S1130670FE81608371838283938320E030E040E0D5
S11306805FE3C701B6016ED420E030E04AE757E4E7
S1130690B5D26B017C019B01AC0164D44B015C01BC
S11306A060915E0170915F01072E000C880B990B1D
S11306B0A9D39B01AC01C501B40154D420E030E0BE
S11306C040E058E34FD44B015C01609152017091BA
S11306D05301072E000C880B990B94D39B01AC019A
S11306E0C701B6013FD49B01AC0189D29B01AC0187
S11306F0C501B40184D220E030E040E85EE332D4A6
S11307004B015C016091500170915101072E000C66
S1130710880B990B77D320E030E040E857E422D4EB
S11307209B01AC01C501B4016AD22B013C0160916B
S1130730560170915701072E000C880B990B62D358
S11307409B01AC01C701B6010DD49B01AC01C701EB
S1130750B60108D420E030E040E056E303D44B0176
S11307605C0160914E0170914F01072E000C880BC3
S1130770990B48D39B01AC01C701B601F3D39B018C
S1130780AC01C501B4013BD220E030E040E056E3C7
S1130790E9D320E030E040E058E3E4D320E030E067
S11307A040E85FE32CD26B017C01609154017091AD
S11307B0550180E090E024D39B01AC01C701B60150
S11307C0D1D36B017C0120E030E0A9017CD28823E5
S11307D009F476C069817A818B819C8113D39B0152
S11307E0AC0160E070E080E899E408D24B015C0160
S11307F020E030E040E859E3C301B201B3D39B01E8
S1130800AC01C501B401FAD120E030E543EC55E474
S1130810A9D3A70196015BD26B017C0160915A01B7
S113082070915B01072E000C880B990BEBD29B0196
S1130830AC01C701B60196D39B01AC01C701B60157
S113084091D320E030E040E050E38CD34B015C01D5
S11308506091580170915901072E000C880B990B77
S1130860D1D29B01AC01C701B6017CD320E030E0BA
S113087040E058E377D39B01AC01C501B401BFD17B
S11308804B015C016091480170914901072E000CF5
S1130890880B990BB7D29B01AC01C501B401AFD150
S11308A020E030E040E85DE35DD39B01AC01C7018B
S11308B0B601A5D174D2F8016083718382839383D6
S11308C026960FB6F894DEBF0FBECDBFDF91CF9151
S11308D01F910F91FF90EF90DF90CF90BF90AF905A
S11308E09F908F907F906F905F904F900895CF93DB
S11308F0DF93EC018881811107C0BE0188E890DC98
S113090090934B0180934A018881811107C0BE01F5
S11309108AE886DC90934D0180934C018881811193
S113092007C0BE018CE87CDC90935D0180935C0180
S11309308881811107C0BE018EE872DC9093550155
S1130940809354018881811107C0BE0180E968DC6D
S113095090934F0180934E018881811107C0BE019D
S113096082E95EDC9093570180935601888181115E
S113097007C0BE0184E954DC909351018093500177
S11309808881811107C0BE0186E94ADC9093530136
S1130990809352018881811107C0BE0188E940DC3F
S11309A090935F0180935E018881811107C0BE012D
S11309B08AE936DC9093490180934801888181114A
S11309C007C0BE018CE92CDC909359018093580137
S11309D08881811107C0BE018EE922DC90935B01FE
S11309E080935A01AE016CE085EF5BDDAE0167EBED
S11309F084EF57DDDF91CF91089504D220E836EEDD
S1130A0045EC57E464D122E63BED42E45EE30DD3CA
S1130A109B01AC0160E070E080E89FE3EFD020E050
S1130A203AE24DE257E49ED220E030E048EC52E452
S1130A3099D2B5C14F925F926F927F928F929F929B
S1130A40AF92BF92CF92DF92EF92FF92CF93DF9358
S1130A50CDB7DEB729970FB6F894DEBF0FBECDBF72
S1130A60198680E895E2B7D088EE93E06FDBCE017B
S1130A7009963DDF898581118CC0AE01475F5F4FC8
S1130A80BE016B5F7F4FCE01019663DD6D817E8178
S1130A908F819885B2DF4B015C01C980DA80EB80DD
S1130AA0FC80C701B6012AE030E040E050E022D4E7
S1130AB029013A01BA01A901440F551F661F771F86
S1130AC0DB01CA01880F991FAA1FBB1F880F991F3A
S1130AD0AA1FBB1F840F951FA61FB71FA70196014E
S1130AE0281B390B4A0B5B0BCA01B9018BD19F93AD
S1130AF08F937F936F93C301B20184D19F938F939C
S1130B007F936F9381E191E09F938F9350D46D8194
S1130B107E818F81988576D19F938F937F936F93F6
S1130B2085E291E09F938F9342D4C501B40124E6FA
S1130B3030E040E050E0DED329013A01ACE9BFEFF8
S1130B40F7D3680D791D8A1D9B1D2AE030E040E033
S1130B5050E0D0D3CA01B90155D19F938F937F93AD
S1130B606F93C301B2014ED19F938F937F936F9381
S1130B7086E391E09F938F931AD48FE493EC0197CB
S1130B80F1F700C000000FB6F894DEBF0FBECDBF72
S1130B9074CF1F928F9380E091E09F938F9307D43B
S1130BA00F900F900F900F908FEF9FEF29960FB635
S1130BB0F894DEBF0FBECDBFDF91CF91FF90EF90D1
S1130BC0DF90CF90BF90AF909F908F907F906F9069
S1130BD05F904F9008959C0140E050E060E271EA1C
S1130BE087E090E087D3215031093093900029B9F0
S1130BF088E18AB986E08093950008955058BB2710
S1130C00AA270ED075C166D130F06BD120F031F433
S1130C109F3F11F41EF45BC10EF4E095E7FB51C154
S1130C20E92F77D180F3BA17620773078407950712
S1130C3018F071F49EF58FC10EF4E0950B2EBA2FC7
S1130C40A02D0B01B90190010C01CA01A0011124CE
S1130C50FF27591B99F0593F50F4503E68F11A167A
S1130C60F040A22F232F342F4427585FF3CF46950B
S1130C7037952795A795F0405395C9F77EF41F162D
S1130C80BA0B620B730B840BBAF09150A1F0FF0FF7
S1130C90BB1F661F771F881FC2F70EC0BA0F621FE3
S1130CA0731F841F48F4879577956795B795F795D3
S1130CB09E3F08F0B3CF9395880F08F09927EE0F65
S1130CC0979587950895D9D008F481E008950CD0BC
S1130CD00FC107D140F0FED030F021F45F3F19F08E
S1130CE0F0C0511139C1F3C014D198F39923C9F359
S1130CF05523B1F3951B550BBB27AA27621773071E
S1130D00840738F09F5F5F4F220F331F441FAA1FD1
S1130D10A9F333D00E2E3AF0E0E830D09150504091
S1130D20E695001CCAF729D0FE2F27D0660F771F3F
S1130D30881FBB1F261737074807AB07B0E809F021
S1130D40BB0B802DBF01FF2793585F4F2AF09E3FB6
S1130D50510568F0B6C000C15F3FECF3983EDCF388
S1130D60869577956795B795F7959F5FC9F7880F2F
S1130D70911D9695879597F90895E1E0660F771F81
S1130D80881FBB1F621773078407BA0720F0621B12
S1130D90730B840BBA0BEE1F88F7E095089504D00B
S1130DA06894B111D9C00895BCD088F09F5790F0D1
S1130DB0B92F9927B751A0F0D1F0660F771F881F7C
S1130DC0991F1AF0BA95C9F712C0B13081F0C3D097
S1130DD0B1E00895C0C0672F782F8827B85F39F035
S1130DE0B93FCCF3869577956795B395D9F73EF4DB
S1130DF090958095709561957F4F8F4F9F4F089583
S1130E00E89409C097FB3EF49095809570956195A0
S1130E107F4F8F4F9F4F9923A9F0F92F96E9BB2756
S1130E209395F695879577956795B795F111F8CFD2
S1130E30FAF4BB0F11F460FF1BC06F5F7F4F8F4F3D
S1130E409F4F16C0882311F096E911C0772321F033
S1130E509EE8872F762F05C0662371F096E8862FCB
S1130E6070E060E02AF09A95660F771F881FDAF722
S1130E70880F9695879597F90895990F0008550F4F
S1130E80AA0BE0E8FEEF16161706E807F907C0F00C
S1130E9012161306E407F50798F0621B730B840B14
S1130EA0950B39F40A2661F0232B242B252B21F4EE
S1130EB008950A2609F4A140A6958FEF811D811D8E
S1130EC0089597F99F6780E870E060E008959FEFC8
S1130ED080EC089500240A941616170618060906CD
S1130EE0089500240A94121613061406050608959C
S1130EF0092E0394000C11F4882352F0BB0F40F424
S1130F00BF2B11F460FF04C06F5F7F4F8F4F9F4F63
S1130F10089557FD9058440F551F59F05F3F71F0E5
S1130F204795880F97FB991F61F09F3F79F087954C
S1130F300895121613061406551FF2CF4695F1DFD5
S1130F4008C0161617061806991FF1CF8695710565
S1130F50610508940895E894BB2766277727CB0199
S1130F6097F908950BD0C4CFB5DF28F0BADF18F095
S1130F70952309F0A6CFABCF1124EECFCADFA0F39F
S1130F80959FD1F3950F50E0551F629FF001729F1A
S1130F90BB27F00DB11D639FAA27F00DB11DAA1F39
S1130FA0649F6627B00DA11D661F829F2227B00D86
S1130FB0A11D621F739FB00DA11D621F839FA00D11
S1130FC0611D221F749F3327A00D611D231F849F61
S1130FD0600D211D822F762F6A2F11249F575040B8
S1130FE08AF0E1F088234AF0EE0FFF1FBB1F661F53
S1130FF0771F881F91505040A9F79E3F510570F00C
S113100060CFAACF5F3FECF3983EDCF386957795EB
S11310106795B795F795E7959F5FC1F7FE2B880F06
S1131020911D9695879597F90895FA01EE0FFF1F84
S113103030962105310599F16115710561F4803807
S1131040BFE39B0749F168949038810561F08038CB
S1131050BFEF9B0741F0992342F5FF3FE1053105BE
S1131060210511F1E8940894E795D901AA2329F4FC
S1131070AB2FBE2FF85FD0F310C0FF5F70F4A695BE
S1131080E0F7F73950F019F0FF3A38F49F779F935F
S11310900CD00F9007FC905808953EF018CF60E0F4
S11310A070E080E89FE308954FE79F775F934F9345
S11310B03F932F939ED02F913F914F915F9152DF99
S11310C005C019F40EF0FDCE46CF01CF2ADFC8F3D8
S11310D09638C0F707F80F92E8942BE33AEA48EB06
S11310E05FE74EDF0F920F920F924DB75EB70F92EC
S11310F0C0D0ECE8F0E016D04F915F91EF91FF91F2
S1131100E595EE1FFF1F49F0FE57E0684427EE0FF8
S1131110441FFA95E1F74195550B32D00F9007FE25
S113112026C00895DF93CF931F930F93FF92EF92FE
S1131130DF927B018C01689405C0DA2EEF011EDF7B
S1131140FE01E894A5912591359145915591AEF311
S1131150EF0166DDFE019701A801DA9479F7DF90CB
S1131160EF90FF900F911F91CF91DF9108959B0114
S1131170AC0160E070E080E89FE3A9CDA2CEACC0F2
S1131180D0DEE8F39923D9F3940F511DBBF39150AA
S1131190504094F059F0882332F0660F771F881F6F
S11311A091505040C1F79E3F510544F7880F911D5F
S11311B09695879597F908955F3FACF0983E9CF01B
S11311C0BB27869577956795B79508F4B160939595
S11311D0C1F7BB0F58F711F460FFE8CF6F5F7F4F83
S11311E08F4F9F4FE3CFB8CE0EF076C070CE689489
S11311F068CE97DEC8F39923D1F3C6F3DF93CF9378
S11312001F930F93FF92C92FDD2788232AF021977C
S1131210660F771F881FDAF720E030E040E85FEBC5
S11312209FE3883920F0803E30F021968F77E7DC09
S1131230E4EBF0E003C0E3DCE1EEF0E073DF8B010C
S1131240BE01EC01FB2E6F5771097595771F880B52
S1131250990BD8DD28E132E741E35FE38FDEAF2D60
S11312609801AE01FF900F911F91CF91DF91D8DCCF
S11312703FCEFA01DC01AA0FBB1F9B01AC01BF5793
S113128028F422273327442750781FC0B75188F405
S1131290AB2F0024469537952795011CA395D2F3CF
S11312A0002069F0220F331F441FB395DAF30DD0E9
S11312B0A5CC61307105A0E88A07B94630F49B01DA
S11312C0AC016627772788279078309621F0208311
S11312D031834283538308959F3F31F0915020F42A
S11312E0879577956795B795880F911D96958795FE
S11312F097F90895052E97FB16F400940FD057FD27
S113130005D01AD007FC02D046F408C05095409589
S1131310309521953F4F4F4F5F4F0895909580959D
S1131320709561957F4F8F4F9F4F0895B7FF26C0EB
S113133025D0821B930B0895A1E21A2EAA1BBB1B76
S1131340FD010DC0AA1FBB1FEE1FFF1FA217B3078D
S1131350E407F50720F0A21BB30BE40BF50B661FA3
S1131360771F881F991F1A9469F760957095809567
S113137090959B01AC01BD01CF01089509D0A59FB3
S1131380900DB49F900DA49F800D911D112408957C
S1131390A29FB001B39FC001A39F700D811D1124B2
S11313A0911DB29F700D811D1124911D0895CF933D
S11313B0DF93CDB7DEB7AE014B5F5F4FFA016191AA
S11313C07191AF01809162019091630103D0DF912B
S11313D0CF9108952F923F924F925F926F927F9296
S11313E08F929F92AF92BF92CF92DF92EF92FF9231
S11313F00F931F93CF93DF93CDB7DEB72B970FB621
S1131400F894DEBF0FBECDBF6C017B018A01FC01E5
S113141017821682838181FFBFC1CE0101963C01F0
S1131420F6019381F70193FD859193FF81917F01EB
S1131430882309F4ADC1853239F493FD859193FF76
S113144081917F01853221F4B60190E0D6D1E8CFB5
S1131450912C212C312CFFE1F315D8F08B3279F04B
S113146038F4803279F08332A1F4232D20611DC039
S11314708D3261F0803369F4232D216016C0832DF1
S11314808260382EE32DE4603E2E2AC0F32DF860EE
S11314901DC037FC2DC020ED280F2A3040F08E32BD
S11314A0B9F436FC75C1232D2064322E19C036FEE2
S11314B006C08AE0989E200D1124922E11C0EAE005
S11314C02E9E200D1124222EF32DF0623F2E08C0F3
S11314D08C3621F4832D8068382E02C0883641F47E
S11314E0F70193FD859193FF81917F018111B3CF22
S11314F0982F9F7D9554933028F40C5F1F4F9FE3E2
S113150099830DC0833631F0833771F0833509F048
S113151055C020C0F801808189830E5F1F4F882445
S11315208394912C530112C02801F2E04F0E511CF8
S1131530F801A080B18036FE03C0692D70E002C0BE
S11315406FEF7FEFC5014ED14C018201F32DFF7780
S11315503F2E15C0280122E0420E511CF801A08044
S1131560B18036FE03C0692D70E002C06FEF7FEFDB
S1131570C5012DD14C01F32DF0683F2E820133FCBF
S113158019C0822D90E088169906A0F4B60180E275
S113159090E033D12A94F5CFF50137FC859137FEDD
S11315A081915F01B60190E028D121102A9421E0B5
S11315B0821A91088114910479F7E1C0843611F0FC
S11315C0893639F5F80137FE07C06081718182815F
S11315D093810C5F1F4F08C060817181072E000C3E
S11315E0880B990B0E5F1F4FF32DFF763F2E97FF4D
S11315F009C090958095709561957F4F8F4F9F4F4F
S1131600F0683F2E2AE030E0A30133D1882E8618FB
S113161044C0853731F4232D2F7EB22E2AE030E0EA
S113162025C0932D997FB92E8F36C1F018F48835D3
S113163079F0AEC0803719F0883721F0A9C0E92FBE
S1131640E061BE2EB4FE0DC0FB2DF460BF2E09C0B8
S113165034FE0AC0292F2660B22E06C028E030E0EE
S113166005C020E130E002C020E132E0F801B7FE1D
S113167007C060817181828193810C5F1F4F06C016
S11316806081718180E090E00E5F1F4FA301F1D073
S1131690882E8618FB2DFF773F2E36FE0DC0232D96
S11316A02E7FA22E891458F434FE0BC032FC09C0DC
S11316B0832D8E7EA82E05C0B82CA32C03C0B82C75
S11316C001C0B92CA4FE0FC0FE01E80DF11D8081FC
S11316D0803321F49A2D997EA92E09C0A2FE06C05A
S11316E0B394B39404C08A2D867809F0B394A3FC10
S11316F010C0A0FE06C0B21480F4280C922C9B18D3
S11317000DC0B21458F4B60180E290E076D0B394E0
S1131710F8CFB21418F42B1802C0982C212CA4FE74
S11317200FC0B60180E390E068D0A2FE16C0A1FC11
S113173003C088E790E002C088E590E0B6010CC0E1
S11317408A2D867851F0A1FE02C08BE201C080E2AE
S1131750A7FC8DE2B60190E050D0891430F4B601B4
S113176080E390E04AD09A94F8CF8A94F301E80D8C
S1131770F11D8081B60190E040D08110F6CF222087
S113178009F44ECEB60180E290E037D02A94F7CF28
S1131790F6018681978102C08FEF9FEF2B960FB6DB
S11317A0F894DEBF0FBECDBFDF91CF911F910F9193
S11317B0FF90EF90DF90CF90BF90AF909F908F906D
S11317C07F906F905F904F903F902F900895FC0111
S11317D00590615070400110D8F7809590958E0F58
S11317E09F1F0895FC016150704001900110D8F7CB
S11317F0809590958E0F9F1F08950F931F93CF93FD
S1131800DF93FB01238121FD03C08FEF9FEF2CC0E9
S113181022FF16C046815781248135814217530720
S113182044F4A081B1819D012F5F3F4F3183208318
S11318308C93268137812F5F3F4F3783268314C0D3
S11318408B01EC01FB010084F185E02D0995892BC6
S1131850E1F6D80116968D919C91179701961796EB
S11318609C938E931697CE01DF91CF911F910F9188
S11318700895FA01AA27283051F1203181F1E89422
S11318806F936E7F6E5F7F4F8F4F9F4FAF4FB1E06F
S11318903ED0B4E03CD0670F781F891F9A1FA11D6A
S11318A0680F791F8A1F911DA11D6A0F711D811D6B
S11318B0911DA11D20D009F468943F912AE0269F30
S11318C011243019305D3193DEF6CF010895462F8F
S11318D04770405D4193B3E00FD0C9F7F6CF462F70
S11318E04F70405D4A3318F0495D31FD40524193D9
S11318F002D0A9F7EACFB4E0A69597958795779596
S11319006795BA95C9F700976105710508959B011C
S1131910AC010A2E06945795479537952795BA95A5
S1131920C9F7620F731F841F951FA01D0895F894B3
S1051930FFCFE3
S11319324572726F7220636F64653A202564200ACF
S11319420054656D70657261747572653A20256420
S11319522E25640A0050726573737572653A2025E8
S1131962642050610A00416C7469747564653A209C
S10B197225642E25640A0A0015
S9030000FC
